:03000000020BE50B
:0C0BE500787FE4F6D8FD758121020C2C0D
:081055000000750D02D50DFD30
:01105D002270
:06108900750E08D50EFDF6
:01108F00223E
:08105E000000750F0DD50FFD18
:011066002267
:06109000751013D510FDE0
:011096002237
:09104B00000000751118D511FD1B
:011054002279
:0710790000750834D508FDE5
:01108000224D
:06109700750850D508FDAC
:01109D002230
:100F3800E4FDFCC3ED9FEC9E5019E4FAFB000000B1
:100F4800000BBB00010ABA04F4BB7CF10DBD000123
:030F58000C80E02A
:010F5B002273
:100DDE006040000000000000000000000000000065
:100DEE0000000000000000000000000000000000F5
:100DFE0000000000000000000000000000000000E5
:100E0E0000000000000000000000000000000000D4
:040E1E0000000000D0
:08106700000075080DD508FD1D
:01106F00225E
:0510A400D2A0D2A12240
:0F100600D2A1D2A0121067C2A1121067C2A022FD
:0C103F00C2A1D2A0121067D2A10210675B
:0F101500EF24FF92A1D2A0121067C2A0021067B1
:0D103200D2A0121067A2A1C2A01210672266
:100FB300E4FEEF25E0FF92A1D2A0121067C2A012B7
:070FC30010670EEEB408EB0D
:010FCA002204
:100F5C00E4FFFED2A1EE25E0FED2A0121067A2A102
:100F6C00E4334EFEC2A01210670FEFB408E7AF06D1
:010F7C002252
:0B0C7100900044EBF0A3EAF0A3E9F0D0
:100C7C00E4900049F0A3F0121006120FB3121032D8
:100C8C00121079E4900049F0A3F0900047E0FEA325
:100C9C00E0FFC390004AE09F900049E09E502D90E9
:100CAC000044E0FBA3E475F00112058DA9F0FA12E3
:100CBC000535FF120FB312103212107990004AE072
:100CCC0004F070C6900049E004F080BE12103F02A0
:020CDC0010976F
:0B0B5400900044EBF0A3EAF0A3E9F0EE
:100B5F00E4900049F0A3F0121006EF4401FF120FCA
:100B6F00B3121032121079E4900049F0A3F0900004
:100B7F0047E0FEA3E0FFC390004AE09F900049E0EA
:100B8F009E504D120F5C900044E0FBA3E475F00102
:100B9F0012058DA9F0FAEF12057B900048E024FFB3
:100BAF00FF900047E034FFFE900049E0B50609A32F
:100BBF00E0B507047F018002E4FF121015121079CF
:100BCF0090004AE004F070A6900049E004F0809E87
:060BDF0012103F02109706
:020E2200C10904
:100F0F00759850758920AB07AA06A905A804E4FFB8
:100F1F007EE1FDFC1205DF1206718F8B8F8DD28E55
:090F2F00D2ACD2AFD299C2092262
:091070002009FDEFD209F59922D7
:100E250090008EEBF0A3EAF0A3E9F090008EE0FBD2
:100E3500A3E0FAA3E0F9120535601790008EA3E44C
:100E450075F00112058DA9F0FA120535FF12107023
:030E550080D9221F
:03002300021024A4
:0E102400309803C29832309904C299C2093242
:06109E00AE0712107022E3
:10000300AC07900000EDF0EAA3F0A3EBF07B017ADC
:0F001300007900900047E4F0A37403F0020C7131
:050D9600900042EFF0A7
:100D9B00E4FB900000EDF00B7A007900900047E443
:100DAB00F0A304F0120C71121097900042E0FF7B3D
:100DBB00017A007900900047E4F0A37402F0120B63
:100DCB0054900000E0FEA3E07C002400FBEC3EFE10
:020DDB00AF0364
:010DDD0022F3
:100F7D00E4900072F0A3F0900074E04401F0900052
:0D0F8D0072E0FAA3E0FB7D017F90020003FB
:100D4800E4900072F0A3F0EF5403C454F0FF900055
:100D580072E054CF4FF0ED5407FFA3E054F84FF082
:100D6800EB540333333354F8FFE054E74FF0E054C7
:100D7800DFF0E054BFF0E0547FF0A3E054FDF090C2
:0E0D88000072E0FAA3E0FB7D017F9002000301
:100E5800EF64026004EFB40329AD07C005E4FBFAB0
:100E6800F9783C900086E0FCA3E0FDA3E0FEA3E057
:100E7800FF12012F12020AAB07AA06D0057F9012B3
:030E880000032242
:100CDE00900091EFF0A3ECF0A3EDF0E4900070F033
:100CEE00A3F0900091E0FF64066005EF6408704782
:100CFE00900070E04401F0E0FAA3E0FB7D047F90E9
:100D0E001200037F087E00120F387D047F90120DB3
:100D1E0096900070EEF0A3EFF0900070E0C31320F9
:100D2E00E012900091E0FDA3E0FAA3E0FB7F9012A9
:0A0D3E00000380037F01227F0022E2
:100F9A00EF64056009EF64066004EFB40807AD0763
:090FAA007F90020D96E4FEFF2287
:100EE40090008A12067FE4FBFAF9783C90008AE0CD
:100EF400FCA3E0FDA3E0FEA3E0FF12012F12020A0F
:0B0F0400AB07AA067D077F90020003E8
:081081007D0F7F90120D9622F5
:100FE300120F7D7F0A7E00120F387B02E4FDFF02A1
:020FF3000D48A7
:100FF5007D017F90120D96EE30E5037F01227F0083
:0110050022C8
:100E8B00E4900040F0A3F0120FF5EF70FAE4FD7F51
:100E9B0090120D96900040EEF0A3EFF0FDAC06EC37
:0C0EAB001201D1E4FBFAF9783C12002699
:010EB7002218
:100FCB0054656D7065726174757265203D20252EB8
:080FDB00326620A1E60D0A00B8
:100EB8001210A47F0A7E00120F387F807E257D00E5
:100EC8007C00120F0F120FE3120E8B9000431206D4
:0C0ED8007F7BFF7A0F79CB12073C80EC87
:10002600EC4D6011E8497017ED33EC3304600DE4D4
:10003600FCFFFEFD22E933E8330470F80202761273
:10004600024158046009E4CC248150062850090274
:10005600028028400302027DC0E0EB4A7044B9806A
:1000660006D0E0FB02026CEF4E701CBD8008EBFF71
:10007600EAFEE9FD80EBE98DF0A4FEE5F002010F52
:10008600E9CDF9EAFEEBFFEF89F0A4FCE5F0CE89B5
:10009600F0A42EFFE435F0CD89F0A42DFEE435F072
:1000A6008067EF4E7005BD80D780C3EF8BF0A4ACA0
:1000B600F0EE8BF0A42CFCE435F0F8EF8AF0A42CDB
:1000C600E5F038FCE433CB8DF0A42CFCE5F03BF8EE
:1000D600EE8AF0A42CFCE5F038F8E433CF89F0A4DE
:1000E6002CFCE5F038CF3400CE89F0A42FFFE5F0E4
:1000F6003EFEE433C98DF0A42EFEE5F039CD8AF03C
:10010600A42FFFE5F03EFEE43DFD33D0E0FB5007B3
:100116000BBB000F020280EC2CFCEF33FFEE33FE2C
:06012600ED33FD0202585A
:10012C00020280EC5D046005E8590470030202765B
:10013C00120241580460F6EC4860F2EC7004FDFECB
:10014C00FF22C860DB2481C85009C39860025006A6
:10015C0002027D9850CAF582E9294B4A7005AB82A0
:10016C0002026C75F0007C1A7880C3EF9BEE9AED5E
:10017C0099400DC3EF9BFFEE9AFEED99FDE842F01E
:10018C00DC23ACF0D0E0FFD0E0FED0E0FDAB822071
:10019C00E7101BEB60BAEC2CFCEF33FFEE33FEEDFB
:1001AC0033FD020258E803F830E705C0F075F000A3
:1001BC00EF2FFFEE33FEED33FD40B830E7C280AADF
:1001CC0075F020800E75F010800575F0087D007EAE
:1001DC00007F003392D530D503120671EC334010FA
:1001EC00EF33FFEE33FEED33FDEC33FCD5F0ED22B7
:0E01FC00E5F0247EA2D513CC92E7CDCEFF22F3
:10020A00EDD2E7CD33EC3392D524814006E4FFFEEC
:10021A00FDFC22FCE4CFCECDCC24E0501174FF804B
:10022A00EDC3CC13CCCD13CDCE13CECF13CF0470E8
:07023A00F030D5DE02067171
:1006D100E5082443F582E43400F583E0050822901F
:1006E1000040300703900043E475F00112068B02CD
:1006F10005352000E97F2ED2008018EF540F249099
:10070100D43440D4FF30040BEF24BFB41A0050039B
:100711002461FFE50960021509050CE50C7002056D
:100721000B30070E900040E475F00112068BEF02CA
:10073100057B02109E7403D2078003E4C207F5080B
:100741009000401206A2E4F509F50BF50CE50960ED
:10075100077F2012071480F5750AFFC201C200C28B
:1007610002C203C205C206C2081206E0FF700D30C4
:1007710007057F00120725AF0CAE0B22B4255FC21F
:10078100D5C2041206E0FF24D0B40A00501A75F055
:100791000A780930D50508B6FF0106C6A426F62059
:1007A100D5047002D20380D924CFB41A00EF5004CB
:1007B100C2E5D204020A17D20180C6D20080C0D29B
:1007C1000280BCD2D580BAD20580B47F2012071432
:1007D1002002077401B5090040F11206D1FF12078A
:1007E1001402074ED208D20680951206D1FB1206DA
:1007F100D1FA1206D1F94A4B700679157A0B7BFFB3
:1008010020022EE509602A7E008E82758300120582
:100811004E60060EEE650A70F0C2D5EBC0E0EAC08C
:10082100E0E9C0E0EE120A78D0E0F9D0E0FAD0E0D9
:10083100FB120535FF60AAEBC0E0EAC0E0E9C0E0C9
:10084100120714D0E02401F9D0E03400FAD0E0FB23
:10085100E50A0460DCD50AD98087D20280A2120A97
:100861005A60F7E50A70010412028BA90A600DE5CE
:100871000A600914F50A120B02EF60F3EA30E7028D
:10088100F404C3995079EAF4250A0430E701E40439
:10089100F50A800D120A5A60C1EA050A250A1202F8
:1008A1008BEA90006FF030E701E4250A04D50A04D1
:1008B10020050114120A78E4C0E0120B0290006FC7
:1008C100E0601320E70714F01206FC802204F0D048
:1008D100E014C0E07F001206FCE50A60071206F38F
:1008E100150A800B3005031206F3D0E002074ED043
:1008F100E00480C4120A5A609EE50A0412028B9039
:10090100006FEAF0E50A2005026001042404120ADE
:01091100786D
:1009120074FF04C0E0120B021206FCE50A20050275
:1009220060031206F3D0E0B50AE87F45120706908D
:10093200006FE07F2B30E7047F2DF404C0E0120744
:1009420014D0E075F00A84C0F01206FDD0E0120661
:10095200FD02074E791080027908C206C20880089B
:10096200D2D5790A8004790AC2D5E50A047002F563
:100972000AE4FAFDFEFF1206D1FC7B0820011312E5
:1009820006D1FD7B1030000A1206D1FE1206D1FFFD
:100992007B20EC3382D592D55013C3E43000069FFE
:1009A200FFE49EFEE42001039DFDE49CFCE4CBF801
:1009B200C201EC700CCFCECDCCE824F8F870F380F5
:1009C20017C3EF33FFEE33FEED33FDEC33FCEB33B5
:1009D200FB994002FB0FD8E9EB300105F8D0E0C4E7
:1009E20048B201C0E00AEC4D4E4F78207B0070C245
:1009F200EAB50A0040BCC0E0120A7AD0F0D0E0208A
:100A02000104C4C0E0C4B201C0F01206FDD0F0D5AA
:100A1200F0EB02074E1206AB07EB5309565807BC20
:100A22004C07B842095A4F09624409624907D14347
:100A320009685508954608F545085F470B35500784
:100A4200C02D07C42E07E72B07C82307E5200B1E7E
:100A52002A078048000007DFE50AB4FF03750A068B
:100A62001206D1FC1206D1FD1206D1FE1206D1FFEA
:100A72009000680202C8790AA2D520031430050941
:100A8200B910020404B9080104A2D52006025001DB
:100A9200042002689202B509005034C0E07F203081
:100AA20003197F30A20272067205500F120AD1C2D8
:100AB20002C206C205C2087F30800F300503E9C0BA
:100AC200E0120714300503D0E0F9D0E0B509CC30CC
:100AD20005177F30B9100C1207147F583004077FB6
:100AE200788003B908031207143002057F2D02072C
:100AF200147F202008F87F2B2006F322920280CF59
:100B02007F00B40700500B2468F582E43400F583BB
:100B1200E0FF22286E756C6C2900D2011206D130DA
:100B220001F8C201780930D50108F60207802D507C
:100B32004349581206D12403B405004001E4900B46
:100B42003093120705743A120705D203750904029D
:020B5200095642
:10024100E9D2E7C933E833F892D5EDD2E7CD33EC03
:0702510033FC5002B2D5227C
:10025800EC30E7100FBF000C0EBE00080DBD000407
:100268000BEB6014A2D5EB13FCED92E7FD2274FFB3
:10027800FCFDFEFF22E480F8A2D574FF13FC7D800C
:03028800E480EF20
:10028B00F920E73624F950037907E4F42402FBE55F
:10029B0082158270021583DBF6E024FB501BE960AC
:1002AB0014E4F0E582158270021583E004F0B40AC1
:0D02BB0008E4F0D9EE7401F00A22C2D52249
:1002C800ED33EC3392D5FA602AB4FF33EDC2E77B05
:1002D800FF60067A0279EDE4227A0279F620D504E5
:1002E8007A0279F1224E614E002B494E46002D4983
:1002F8004E4600E47A08F0A3DAFC7B00740722C0BB
:1003080083C082ECC0E0EDC0E0EEC0E0EFC0E0EA00
:1003180075F010A4CAABF075F04DA42BFBE435F0D2
:10032800FCEA2410FAEB34C5FBEC34D9FCEDC2E747
:10033800FF75F056A4F42411C5F0F434C58FF0A469
:100348002AE5F03BE43CF020E7141204F5D0E0FF86
:10035800D0E0FED0E0FDD0E0FC12012F8014F404C0
:100368001204F5D0E0FFD0E0FED0E0FDD0E0FC12B2
:100378000026D082D083E0FAEDD2E7CD33EC3324E7
:1003880082FBE4C3CF33CFCE33CECD33CD33DBF3D3
:100398007B0775F00A846004F0A31B0AE5F0F0A35C
:1003A8008FF0740AA4FFACF08EF0740AA42CFEAC93
:1003B800F050010C8DF0740AA42CFDE435F0F0A384
:0503C800DBDE740722DA
:1003CD00020276E86480F8E933E83360110460F0E6
:1003DD00ED33EC337009E8FCE9FDEAFEEBFF220496
:1003ED0060DED3EB9FEA9EE99DE8C2E78CF0C2F791
:1003FD0095F0400CE8CCF8E9CDF9EACEFAEBCFFB5D
:10040D0012024185D0F05804700320D5B3E8047072
:10041D00075002B2D502028092D5EC0460F7E4CC0D
:10042D00C0E0C398F8603B94186008400DD0E0FB25
:10043D00020258E4FBFAC9FC8028E830E406E4C95E
:10044D00FBE4CAFCE830E305E4C9CACBFCE8540779
:10045D006010F8C3E913F9EA13FAEB13FBEC13FC84
:10046D00D8F130F52FC3E49CFCEF9BFFEE9AFEED27
:10047D0099FDD0E0FBEF4E4D4C701222DB030202D2
:10048D007DEC2CFCEF33FFEE33FEED33FDED30E76D
:10049D00EB020258EF2BFFEE3AFEED39FDD0E0FBFB
:1004AD0050130BBB0003020280ED13FDEE13FEEFA4
:0804BD0013FFEC13FC020258CE
:1004C5003F8000004120000042C80000447A00003F
:1004D500461C400047C35000497424004B189680C1
:1004E5004CBEBC205A0E1BCA6753C21C749DC5AEB8
:1004F500FB60065407601C2323120523EB54386068
:100505000912050F12051E120026ECF8EDF9EEFA98
:10051500EFCB22EB12051E80F1543803241C900406
:10052500C5FE93FC0EEE93FD0EEE930ECE93FF22C9
:100BF100020EB8E493A3F8E493A34003F68001F254
:100C010008DFF48029E493A3F85407240CC8C33304
:100C1100C4540F4420C8834004F456800146F6DFD3
:100C2100E4800B0102040810204080900DDEE47E78
:100C3100019360BCA3FF543F30E509541FFEE493C8
:100C4100A360010ECF54C025E060A840B8E493A38F
:100C5100FAE493A3F8E493A3C8C582C8CAC583CABA
:100C6100F0A3C8C582C8CAC583CADFE9DEE780BE72
:010E240000CD
:10053500BB010689828A83E0225002E722BBFE02C4
:09054500E32289828A83E49322F7
:10054E00BB010CE58229F582E5833AF583E0225062
:10055E0006E92582F8E622BBFE06E92582F8E222AC
:0D056E00E58229F582E5833AF583E49322C6
:10057B00BB010689828A83F0225002F722BBFE015F
:02058B00F32259
:10058D00A3F8E0C5F025F0F0E58215827002158321
:06059D00E0C838F0E8227E
:1005A30075F008758200EF2FFFEE33FECD33CDCC0F
:1005B30033CCC58233C5829BED9AEC99E582984092
:1005C3000CF582EE9BFEED9AFDEC99FC0FD5F0D66F
:1005D300E4CEFBE4CDFAE4CCF9A88222B800C1B999
:1005E3000059BA002DEC8BF084CFCECDFCE5F0CBD7
:1005F300F97818EF2FFFEE33FEED33FDEC33FCEB10
:1006030033FB10D703994004EB99FB0FD8E5E4F9CA
:10061300FA227818EF2FFFEE33FEED33FDEC33FCB7
:10062300C933C910D7059BE99A4007EC9BFCE99AAB
:10063300F90FD8E0E4C9FAE4CCFB2275F010EF2FF0
:10064300FFEE33FEED33FDCC33CCC833C810D707F0
:100653009BEC9AE899400AED9BFDEC9AFCE899F82B
:0E0663000FD5F0DAE4CDFBE4CCFAE4C8F922BE
:0E067100C3E49FFFE49EFEE49DFDE49CFC229A
:0C067F00ECF0A3EDF0A3EEF0A3EFF022EE
:10068B00F8E0FBA3A3E0F925F0F0E58215827002F8
:07069B001583E0FA38F0229C
:0906A200EBF0A3EAF0A3E9F02259
:1006AB00D083D082F8E4937012740193700DA3A3DE
:1006BB0093F8740193F5828883E4737402936860F2
:0606CB00EFA3A3A380DFF2
:00000001FF
