:020000040800F2
:10000000D80400204103000845010008470100080A
:100010004B0100084F0100085301000800000000D8
:100020000000000000000000000000005701000870
:1000300059010008000000005B0100085D01000894
:100040005B0300085B0300085B0300085B03000818
:100050005B0300085B0300085B0300085B03000808
:100060005B0300085B0300085B0300085B030008F8
:100070005B0300085B0300085B0300085B030008E8
:100080005B0300085B0300085B0300085B030008D8
:100090005B0300085B0300085B0300085B030008C8
:1000A0005B0300085B0300085B0300085B030008B8
:1000B0005B0300082F0A00085B0300085B030008CD
:1000C0005B0300085B0300085B0300085B03000898
:1000D0005B0300081F0B00085B0300085B030008BC
:1000E0005B0300085B0300085B0300085B03000878
:1000F0005B0300085B0300085B0300085B03000868
:100100005B0300085B0300085B0300085B03000857
:100110005B0300085B0300085B0300085B03000847
:100120005B0300085B0300085B0300085B03000837
:10013000DFF80CD003F0EAFF00480047ED37000875
:10014000D8040020704700BFFEE700BFFEE700BFF5
:10015000FEE700BFFEE7704770477047704700003A
:100160000CB50020019000906C48006840F480308D
:100170006A49086000BF6948006800F400300090D8
:100180000198401C0190009818B90198B0F5A06F33
:10019000F1D16248006800F4003010B101200090F5
:1001A00001E0002000900098012843D15C480068DD
:1001B00040F010005A4908600846006820F003002B
:1001C00008600846006840F0020008605348406834
:1001D000524948600846406848600846406840F414
:1001E000806048600846406820F47C1048600846FB
:1001F000406840F4E81048600846006840F08070AD
:10020000086000BF4548006800F000700028F9D081
:100210004248406820F00300404948600846406872
:1002200040F00200486000BF3C48406800F00C000D
:100230000828F9D10CBD10B5FFF792FF10BD10B51D
:100240003648006840F001003449086008464068BC
:10025000344908403149486008460068324908403E
:100260002E4908600846006820F48020086008468F
:10027000406820F4FE0048604FF41F008860FFF7DC
:10028000DAFF4FF000602949086010BD10B5002169
:1002900000200022214B5B6803F00C0121B10429EE
:1002A00006D0082928D107E0214B224C236027E003
:1002B0001F4B204C236023E0184B5B6803F4701045
:1002C000164B5B6803F48032022303EB904022B9A3
:1002D000194B4343174C23600DE0104B5B6803F44C
:1002E000003323B1144B4343124C236003E0104B03
:1002F0004343104C236003E00D4B0E4C236000BFC2
:1003000000BF064B5B68C3F303130C4CE15C094B65
:100310001B68CB40074C236010BD0000001002405A
:10032000002002400000FFF8FFFFF6FE08ED00E0AD
:1003300000127A000000002000093D0004000020A7
:100340000648804706480047FEE7FEE7FEE7FEE76F
:10035000FEE7FEE7FEE7FEE7FEE7FEE73F020008F6
:1003600031010008002101464906934A926942F092
:100370000102914B9A61914A526822F0E0628F4BE0
:100380005A601A4652680A435A60704710B50020F6
:1003900002F05DF810BD10B501214FF0C05001F022
:1003A000F4FF012002F0B5F8002001F04EFF00BF7D
:1003B000412001F0B2FE0128FAD0002002F0A9F895
:1003C00010BD7F487F490860704710B500227A4B06
:1003D0001B680343784C2360B0F5803F08D100BF11
:1003E000754B1B6803F40033B3F5003FF8D108E008
:1003F000012806D100BF704B1B6803F00203022BDB
:10040000F9D14FF480636C4C63608B1ED9B22346E4
:100410005B6843EA8143636023465B6843F480334F
:100420006360694B1B6843F03203674C2360624B87
:100430001B6843F08073604C236000BF5E4B1B68F9
:100440005B0E002BFAD05C4B5B6843F002035A4C06
:10045000636005E0584B5B68C3F3870202F0030258
:10046000022AF7D110BD4FF0E020006920F004000F
:100470004FF0E021086109205449088008460088AF
:1004800000EB4001C1EBC0104FF6FF7101EAC00064
:100490004F4908807047014600204C4A12884A4361
:1004A0004FF0E0235A6100229A6101221A6100BFD5
:1004B0004FF0E022106900F001021AB100F480321E
:1004C000002AF5D000224FF0E0231A619A617047AC
:1004D000014600203E4A12884A434FF0E0235A6109
:1004E00000229A6101221A6100BF4FF0E0221069D8
:1004F00000F001021AB100F48032002AF5D0002287
:100500004FF0E0231A619A6170472DE9F8430446E1
:100510000E4617461D46DDF820802E48844204D141
:100520000121042001F024FF1EE02B48844204D165
:100530000121082001F01CFF16E02848844204D164
:100540000121102001F014FF0EE02548844204D15F
:100550000121202001F00CFF06E02248844203D153
:100560000121402001F004FFADF800608DF8035038
:100570008DF802706946204601F03EFC142D05D02E
:100580001C2D03D0102D01D0182D04D14246314628
:10059000204601F0E2FCBDE8F883012905D1124AAA
:1005A00012680243104B1A6004E00F4A126882433B
:1005B0000D4B1A607047000000100240000001401F
:1005C0000400FA050CED00E00020024014000020B9
:1005D0001600002000080140000C014000100140FE
:1005E00000140140001801400004014008B501203A
:1005F00010230322022100901248FFF786FF0120FA
:1006000010230322194600900E48FFF77EFF08BD15
:1006100009B1012914D120B1012805D002280DD13A
:1006200006E0094A11600AE0074A0C32116006E050
:10063000054A1160054AC2F8901100E000BF00BFF2
:100640007047000000100140840122420000224255
:1006500008B501200423032201020090C948FFF7D6
:1006600054FF01200423032241020090C548FFF7F4
:100670004CFF01200423032220210090C248FFF7F1
:1006800044FF01200423032201460090BF48FFF7E6
:100690003CFF01200423032202210090BB48FFF706
:1006A00034FF002016E0002100EB4002B84B03F8B5
:1006B000221000EB400203EB8202517000EB40027B
:1006C00003EB8202516000EB400203EB82021172E5
:1006D000411CC8B20528E6DB482142F20F7000F049
:1006E00079F908BD70B504460025052C24D2DFE851
:1006F00004F0030A11171D004FF48071A14801F0A6
:100700000EFC054619E04FF400719E4801F007FC0D
:10071000054612E020219C4801F001FC05460CE052
:1007200001219A4801F0FBFB054606E002219748AB
:1007300001F0F5FB054600E000BF00BF284670BD94
:1007400070B594480068401C924908600024DFE0BE
:10075000E0B2FFF7C7FF08B9012000E0002005461E
:1007600004EB44008A4911F82000052812D2DFE882
:1007700000F003122CC5A00065B1012004EB440178
:10078000834A02F821008348006804EB440102EB2D
:1007900081014860BAE004EB44007D4901EB800030
:1007A00040687C490968081A03280DD335B1022036
:1007B00004EB4401764A02F8210005E0002004EB36
:1007C0004401734A02F82100A0E0002D53D104EB4C
:1007D00044006F4901EB800040686E490968081ABF
:1007E00064280DD3032004EB4401694A02EB810124
:1007F0004870002004EB440102EB8101087257E0CD
:1008000004EB4400624901EB8000007A401C04EBD9
:1008100044015F4A02EB8101087204EB4400114677
:1008200001EB8000007A01280CD1042004EB440184
:1008300002F821005748006804EB440102EB8101F3
:10084000486035E004EB4400514901EB8000007A38
:1008500002282DD104EB44014D4A02EB810148707E
:10086000002004EB440102EB8101087204EB440117
:1008700002F821001CE004EB4400454901EB800034
:10088000406844490968081A642811D3032004EB1E
:1008900044013F4A02EB81014870002004EB44010F
:1008A00002EB81010872032004EB440102F82100ED
:1008B0002CE004EB4400364901EB800040683549E8
:1008C0000968081A1E2811D3012004EB4401304A9C
:1008D00002EB81014870002004EB440102EB81012E
:1008E000087204EB440102F8210006E02DB1022059
:1008F00004EB4401264A02F8210007E02DB900204C
:1009000004EB4401224A02F8210000BF00BF641C2E
:10091000052CFFF61DAF70BD10B50146052901DBA2
:10092000002010BD01EB4100194B03EB8000427821
:10093000002001EB4103164C04EB83035870104672
:10094000EFE770B5002419E02046FFF7E5FF054604
:10095000012D04D1611C10A003F078FC0CE0022DE5
:1009600004D1611C10A003F071FC05E0032D03D13C
:10097000611C13A003F06AFC601CC4B2052CE3DB0D
:1009800070BD00000014014000100140000C014047
:100990005C000020180000204B4559256420436C62
:1009A00069636B0D0A0000004B4559256420446FB4
:1009B00075626C6520436C69636B0D0A0000000072
:1009C0004B45592564204C6F6E67205072657373D8
:1009D0000D0A00007FB505460C460121022001F0FA
:1009E000D4FCADF80850ADF804400020ADF80A0082
:1009F000ADF8060001A9144802F0BEF80122114624
:100A0000114802F030FC1D208DF8000000208DF808
:100A1000010003208DF8020001208DF803006846D4
:100A200001F021F90121084802F002FC7FBD10B558
:100A30000121054802F0C5FE28B10121024802F05B
:100A4000D1FEFFF77DFE10BD0004004010B586B05A
:100A50000446012144F27C0001F08AFC3F4801F089
:100A6000B3FD4FF40070ADF8140003208DF81600AC
:100A700018208DF8170005A9394801F0BDF94FF489
:100A80008060ADF8140048208DF8170005A934489F
:100A900001F0B2F901940020ADF80800ADF80A00A9
:100AA000ADF80C00ADF810000C20ADF80E0001A957
:100AB0002A4801F0CCFD25208DF8000003208DF898
:100AC00001008DF8020001208DF80300684601F056
:100AD000CAF8012240F22551204801F050FE0121C0
:100AE0001E4801F040FE06B010BD10B50446E1B24C
:100AF0001A4801F0A5FE00BF8021184801F00EFF42
:100B00000028F9D010BD70B50446002500BF605D17
:100B1000FFF7EBFF6D1C605D0028F8D170BD08B5D4
:100B20000020009040F225510C4801F00DFF20B14B
:100B30000A4801F089FEC0B2009008BD70B50446B5
:100B40000D46E1B2054801F07BFE00BF402103489D
:100B500001F0E4FE0028F9D0204670BD00380140C5
:100B6000000801402DE9F04706460F4614461D4691
:100B7000DDF820A04FF00008C146681E83B2601E59
:100B800082B23946304600F0E2FDB8460FE0B14689
:100B900007E05146022000F0BAFD09F101001FFAFA
:100BA00080F9A145F5DB08F101001FFA80F8A8459E
:100BB000EDDBBDE8F08770B504460D4616462B46C2
:100BC00022462946204600F0C2FD3146022000F0B0
:100BD0009EFD70BD2DE9FF4F85B081468A460020FD
:100BE0000490039083460798A0EB09050898A0EBB2
:100BF0000A06CDF80890CDF804A0002D01DD0127EC
:100C000005E00DB9002702E04FF0FF376D42002EDE
:100C100002DD4FF0010806E016B94FF0000802E0CF
:100C20004FF0FF387642B54201DD2C4600E03446F5
:100C3000002004901EE0019A91B2029A90B2129A9A
:100C4000FFF7B9FF039828440390B3440398A042E8
:100C500005DD0398001B0390029838440290A345D9
:100C600004DDABEB040B0198404401900498401C58
:100C700080B20490611C04988842DCDB09B0BDE8B6
:100C8000F08F2DE9F84305460E4617469846089C16
:100C900033463A46314628460094FFF79BFF4346C9
:100CA0002A46314628460094FFF794FF43463A46C9
:100CB000414628460094FFF78DFF43463A463146A9
:100CC00038460094FFF786FFBDE8F8832DE9F0472A
:100CD00006460F46904699460025002400BF44462C
:100CE00041E07A1B91B2321B90B24A46FFF763FF94
:100CF0007A1B91B2321990B24A46FFF75CFF3A195B
:100D000091B2721B90B24A46FFF755FF3A1B91B25F
:100D1000721B90B24A46FFF74EFF7A1991B2321910
:100D200090B24A46FFF747FF3A1B91B2721990B250
:100D30004A46FFF740FF3A1991B2721990B24A46FB
:100D4000FFF739FF7A1991B2321B90B24A46FFF78A
:100D500032FF6D1C05FB05F004FB040108FB08F0E5
:100D6000814200DD641EA542BBDDBDE8F0872DE9B0
:100D7000FF5F0646894692469B460F9C0027B84671
:100D80000020039000250290019000962046E21773
:100D900004EB5272D2102146E31704EB5373DB10BD
:100DA000A4EBC3030BB1012300E000231A44624308
:100DB00092B2019210200290002573E005EB85109D
:100DC000FE4911F810009AF80010884267D105EB2F
:100DD0008510FA4901EB400040789AF801108842EA
:100DE0005DD109EB0400401E83B23019401E82B26F
:100DF0004946304600F0ABFC00274DE04FF00008BC
:100E000044E0109808BB05EB8510EC4901EB40006D
:100E1000801CC05D012101FA08F1084020B159464B
:100E2000022000F074FC03E002200E9900F06FFC39
:100E30000398401CC0B20390039890FBF4F104FBAC
:100E40001100F8B90020039023E005EB8510DB4981
:100E500001EB4000801CC05D012101FA08F108404F
:100E600020B15A4649463046FFF7A5FE701C86B2AF
:100E70000098301AA04205D1009E09F101001FFA26
:100E800080F906E008F1010000F0FF08B8F1080F52
:100E9000B7DB00BF781CC7B201988742AEDB00BF4A
:100EA000681C85B20298854288DBBDE8FF9F2DE96A
:100EB000FF5F0646894692469B460F9C0027B84630
:100EC0000020039000250290019000962046E21732
:100ED00004EB5272D2102146E31704EB5373DB107C
:100EE000A4EBC3030BB1012300E000231A446243C7
:100EF00092B201921020029000257BE005EB850064
:100F000000EB4510AE4911F810009AF80010884225
:100F10006DD105EB850000EB4510A94901EB4000C0
:100F200040789AF80110884261D109EB0400401E14
:100F300083B23019401E82B24946304600F007FCA9
:100F4000002751E04FF0000848E0109818BB05EB6F
:100F5000850000EB45109A4901EB4000801CC05D04
:100F6000012101FA08F1084020B15946022000F0A1
:100F7000CEFB03E002200E9900F0C9FB0398401C51
:100F8000C0B20390039890FBF4F104FB110008BB7E
:100F90000020039025E005EB850000EB4510884913
:100FA00001EB4000801CC05D012101FA08F10840FE
:100FB00020B15A4649463046FFF7FDFD701C86B207
:100FC0000098301AA04205D1009E09F101001FFAD5
:100FD00080F906E008F1010000F0FF08B8F1080F01
:100FE000B3DB00BF781CC7B201988742AADB00BF01
:100FF000681C85B20298854280DBBDE8FF9F2DE921
:10100000FF5F0646894692469B460F9C0027B846DE
:101010000020039000250290019000962046E217E0
:1010200004EB5272D2102146E31704EB5373DB102A
:10103000A4EBC3030BB1012300E000231A44624375
:1010400092B2019210200290002573E005EB05108A
:101050005C4911F810009AF80010884267D105EB3E
:101060000510584901EB400040789AF80110884279
:101070005DD109EB0400401E83B23019401E82B2DC
:101080004946304600F063FB00274DE04FF0000872
:1010900044E0109808BB05EB05104A4901EB4000FD
:1010A000801CC05D012101FA08F1084020B15946B9
:1010B000022000F02CFB03E002200E9900F027FB39
:1010C0000398401CC0B20390039890FBF4F104FB1A
:1010D0001100F8B90020039023E005EB0510394911
:1010E00001EB4000801CC05D012101FA08F10840BD
:1010F00020B15A4649463046FFF75DFD701C86B266
:101100000098301AA04205D1009E09F101001FFA93
:1011100080F906E008F1010000F0FF08B8F1080FBF
:10112000B7DB00BF781CC7B201988742AEDB00BFB7
:10113000681C85B20298854288DBBDE8FF9F2DE9D7
:10114000FF5F0646894692469B460F9C0027B8469D
:101150000020039000250290019000962046E2179F
:1011600004EB5272D2102146E31704EB5373DB10E9
:10117000A4EBC3030BB1012300E000231A44624334
:1011800092B2019210200290002584E005EB8500C8
:1011900000EBC5000C4911F810009AF800108842C5
:1011A00076D105EB850000EBC500074901EB400057
:1011B00040789AF8011088426AD107E0B0870008A9
:1011C00010830008F0800008507F000809EB04003D
:1011D000401E83B23019401E82B24946304600F0AC
:1011E000B6FA002751E04FF0000848E0109818BB0D
:1011F00005EB850000EBC500F64901EB4000801CC3
:10120000C05D012101FA08F1084020B159460220D1
:1012100000F07DFA03E002200E9900F078FA0398BE
:10122000401CC0B20390039890FBF4F104FB110042
:1012300008BB0020039025E005EB850000EBC5000E
:10124000E44901EB4000801CC05D012101FA08F176
:10125000084020B15A4649463046FFF7ACFC701CA6
:1012600086B20098301AA04205D1009E09F1010013
:101270001FFA80F906E008F1010000F0FF08B8F15C
:10128000080FB3DB00BF781CC7B201988742AADB06
:1012900000BF681C85B202988542FFF677AFBDE8B3
:1012A000FF9F2DE9FE4F8046894617469A46DDE9A5
:1012B0000D460C9D36E00C2C09D153463A46494662
:1012C0004046CDE901460095FFF739FF25E0102C97
:1012D00009D153463A4649464046CDE90146009574
:1012E000FFF78DFE19E0182C09D153463A464946BE
:1012F0004046CDE901460095FFF7D9FD0DE0202CD1
:1013000009D153463A4649464046CDE90146009543
:10131000FFF72DFD01E0BDE8FE8FBF1C08EB0400C8
:101320001FFA80F838780028C5D100BFF3E72DE90F
:10133000FF5F80468A4616469B460F9D002003901D
:1013400000248146029000270190CDF800802846B5
:1013500005EBD071C1F347042046E21704EB52724B
:10136000D2102146E31704EB5373DB10A4EBC30345
:101370000BB1012300E000231A446A4392B20192A8
:10138000A6F12000C6B20AEB0500401E83B208EBAE
:101390000400401E82B25146404600F0D8F90027B2
:1013A0006BE00C2D07D106EB46008B4901EB80006A
:1013B000C05D03901BE0102D05D1884800EB06109E
:1013C000C05D039013E0182D07D106EB4600844959
:1013D00001EB0010C05D039009E0202D05D181488C
:1013E00000EB8610C05D039001E0BDE8FF9F4FF069
:1013F00000093CE01098D8B9012000FA09F00399DF
:10140000084020B15946022000F081F903E0022093
:101410000E9900F07CF90298401CC0B2029002982C
:1014200090FBF4F104FB1100E8B90020029021E0E8
:10143000012000FA09F00399084020B15A465146AC
:101440004046FFF7B8FB08F101001FFA80F800984A
:10145000A8EB0000A04206D1DDF800800AF10100EF
:101460001FFA80FA06E009F1010000F0FF09B9F166
:10147000080FBFDB00BF781C87B20198874290DB62
:1014800000BFB2E72DE9FE4F06460F4614469846C8
:10149000DDE90D5ADDF8309010E0CDE9015ACDF8C4
:1014A00000902278434639463046FFF740FF2846F1
:1014B00005EBD07106EB61018EB2641C2078002828
:1014C000EBD1BDE8FE8F10B50246012000E050438D
:1014D0000B00A1F10104E1B2F9D110BD2DE9F04FEB
:1014E00087B00746884614461E46DDE912ABDDF894
:1014F00044900DF11B05002028702CB926B930212D
:10150000681E054601701DE0E10F09B1624200E06E
:10151000224610460BE00A22B0FBF2F302FB130254
:1015200030326B1E1D461A700A22B0FBF2F0002802
:10153000F1D10CB9002EEED119B12D236A1E15463A
:10154000137000BF8DE8000E2A4641463846109BB6
:10155000FFF798FF07B0BDE8F08F2DE9FF5F8CB073
:10156000804615461E46DDF87CA0DDE91A793B462B
:101570001DA21E2104A8CDE9005602F077FE834685
:10158000B9F1000F19D1002F17DD2E2104A802F0A8
:10159000D7FA044684B104A95944481E02E0002148
:1015A00000F80119A04202D901783029F7D0A042F1
:1015B00001D10021217000BF00BFDDE91D018DE8D0
:1015C000030404AA40461C9B0D99FFF75BFF10B073
:1015D000BDE8F09F507F00085C4B0008D04F00082A
:1015E000C055000890670008252E2A6600000000FC
:1015F0002DE9F05F0746884615461E46DDF828901F
:101600004FF0000AD346002408EB0600401E83B2C8
:101610007819401E82B24146384600F098F800BF63
:101620001AE04FF0000B11E019F81410012000F03F
:101630006EF8012000EB440019F80010012000F0C2
:1016400066F8641C0BF101001FFA80FBB345EBDB6D
:101650000AF101001FFA80FAAA45E2DBBDE8F09F1B
:1016600008B50120FEF77EFE012010230322194653
:101670000090C848FEF749FF0120102303222021D3
:101680000090C448FEF741FF01201023032201020D
:101690000090C048FEF739FF0120102303224102C9
:1016A0000090BC48FEF731FF0120102303220421E3
:1016B0000090B948FEF729FF0120102303220821DA
:1016C0000090B548FEF721FF08BD0021B34A116024
:1016D00000BF16E00022B14B1B1D1A6000F0800213
:1016E000802A03D10122AE4B1A6002E00022AC4BEB
:1016F0001A600122A94B1B1D1A604206100E4A1CDB
:10170000D1B20829E6DB0121A44A1160704770B507
:1017100004460E46002509E0611B491EC90046FA31
:1017200001F1C8B2FFF7D1FF681CC5B2A542F3DBD7
:1017300070BD10B5044600209949091F0860204675
:10174000FFF7C3FF01209749C1F8A00110BDF0B514
:1017500004460D4616461F462A20FFF7EAFF04F10D
:10176000280081B20220FFF7D2FF06F1280081B2E3
:101770000220FFF7CCFF2B20FFF7DBFF05F1350040
:1017800081B20220FFF7C3FF07F1350081B20220CA
:10179000FFF7BDFF2C20FFF7CCFFF0BD10B5FFF722
:1017A0005FFF00207E49103908606420FEF790FE3C
:1017B00001207C49C1F894016420FEF789FE0020D5
:1017C0007749143908606420FEF782FE1120FFF784
:1017D000B0FF7820FEF77CFE3620FFF7AAFF7021CD
:1017E0000120FFF794FF3A20FFF7A3FF0521012016
:1017F000FFF78DFFB220FFF79CFF0C210120FFF7C0
:1018000086FF0C210120FFF782FF00210120FFF756
:101810007EFF33210120FFF77AFF33210120FFF7FC
:1018200076FFB720FFF785FF35210120FFF76FFF17
:10183000BB20FFF77EFF19210120FFF768FFC020C2
:10184000FFF777FF2C210120FFF761FFC220FFF790
:1018500070FF01210846FFF75AFFC320FFF769FF19
:1018600012210120FFF753FFC420FFF762FF202160
:101870000120FFF74CFFC620FFF75BFF0F2101207F
:10188000FFF745FFD020FFF754FFA4210120FFF709
:101890003EFFA1210120FFF73AFFE020FFF749FFBB
:1018A000D0210120FFF733FF04210120FFF72FFF94
:1018B0000D210120FFF72BFF11210120FFF727FF4A
:1018C00013210120FFF723FF2B210120FFF71FFF2A
:1018D0003F210120FFF71BFF54210120FFF717FFD5
:1018E0004C210120FFF713FF18210120FFF70FFF04
:1018F0000D210120FFF70BFF0B210120FFF707FF50
:101900001F210120FFF703FF23210120FFF7FFFE26
:10191000E120FFF70EFFD0210120FFF7F8FE0421A0
:101920000120FFF7F4FE0C210120FFF7F0FE11214A
:101930000120FFF7ECFE13210120FFF7E8FE2C2128
:101940000120FFF7E4FE3F210120FFF7E0FE4421E4
:101950000120FFF7DCFE51210120FFF7D8FE2F21E7
:101960000120FFF7D4FE1F210120FFF7D0FE1F2129
:101970000120FFF7CCFE20210120FFF7C8FE232124
:101980000120FFF7C4FE2120FFF7D3FE2920FFF737
:10199000D0FE10BD000C0140001001408801224221
:1019A000A48121420080214208B501217C2000F061
:1019B000DFFC8020ADF8000003208DF802004820F5
:1019C0008DF803006946A04800F016FA08BD08B576
:1019D00001217C2000F0CCFC8020ADF80000032029
:1019E0008DF8020010208DF803006946964800F03B
:1019F00003FA08BD08B501217C2000F0B9FC4020A5
:101A0000ADF8000003208DF8020010208DF80300CF
:101A100069468D4800F0F0F9FFF7D9FF01208B49A6
:101A200008608B49C1F89C01A0208A4908704021B8
:101A3000894802F07AF808BD10B5FFF7C8FF012009
:101A40008249091D08608249C1F898010420FEF707
:101A500022FD00207D49091D08600420FEF71BFDC2
:101A600000207B49C1F8980110BD10B5FFF7AFFF0A
:101A70000020764908607649C1F89C010420FEF7F1
:101A80000AFD0120714908607149C1F89C010420D8
:101A9000FEF701FD10BD10B50024FFF798FF0120EF
:101AA0006A49091D0860FEF7F6FC01206849C1F883
:101AB0009801FEF7F0FCFFF777FF07E0601CC4B267
:101AC000FA2C03DDFFF7D1FF012010BD5F487C3801
:101AD00000680028F2D15D49086000BFF5E710B545
:101AE0000446FFF774FF0020584908605848C0F8C2
:101AF0009C410220FEF7CFFC0120544908600420DD
:101B0000FEF7C9FC00205249C1F8980110BD70B51C
:101B10000446FFF75CFF00204C490860002520E0E8
:101B200004F08000802804D101204849091D086084
:101B300003E000204549091D08600220FEF7ABFCC8
:101B40000120424908600220FEF7A5FC0020404920
:101B5000C1F898010220FEF79EFC6006040E681C86
:101B6000C5B2082DDCDB70BD70B50024FFF71CFF8B
:101B7000002517E06006040E0020344908600220AA
:101B8000FEF789FC01203249C1F898012F487C38C2
:101B90000068012801D1601CC4B20120FEF77BFC63
:101BA000681CC5B2082DE5DB204670BD2DE9F0416B
:101BB00004460D461646FFF73FFF2046FFF7A7FFF6
:101BC000FFF769FF0A20FEF766FC00270AE015F818
:101BD000010BFFF79CFFFFF75EFF0A20FEF75BFC9F
:101BE000781C87B2B742F2DBFFF73FFFBDE8F08118
:101BF0002DE9F04107460C461546FFF71DFF47F05B
:101C00000100FFF784FFFFF746FF0A20FEF743FCC1
:101C1000002612E0FFF7A8FF04F8010B681EB0428F
:101C200003D10120FFF75BFF02E00020FFF757FF21
:101C30000A20FEF730FC701C86B2AE42EADBFFF7EA
:101C400014FFBDE8F0810000000C014098812142A2
:101C500000802142200000209800002031490143EB
:101C6000314A1160704770B5002100230F22C478FB
:101C700004B32D4C246804F4E064C4F5E064210A44
:101C8000C1F10403CA40447804FA03F18478144093
:101C900021430901254C0678A155047804F01F055D
:101CA0000124AC4005786D11AD0005F1E025C5F8C3
:101CB000004109E0047804F01F050124AC401C4DEC
:101CC0000678761145F8264070BD1A4A0A4002434C
:101CD000154B1B1F1A60704739B1134A121D126849
:101CE0000243114B1B1D1A6006E00F4A121D1268B9
:101CF00082430D4B1B1D1A607047042808D14FF01A
:101D0000E021096941F004014FF0E022116107E090
:101D10004FF0E021096921F004014FF0E022116148
:101D2000704700000000FA050CED00E000E400E060
:101D300080E100E080FFFF1F10B50446CC488442DC
:101D400008D10121042000F02DFB0021042000F027
:101D500029FB46E0C748844208D10121082000F051
:101D600021FB0021082000F01DFB3AE0C24884421C
:101D700008D10121102000F015FB0021102000F0F7
:101D800011FB2EE0BD48844208D10121202000F043
:101D900009FB0021202000F005FB22E0B848844226
:101DA00008D10121402000F0FDFA0021402000F080
:101DB000F9FA16E0B348844208D10121802000F0EE
:101DC000F1FA0021802000F0EDFA0AE0AE488442EA
:101DD00007D10121801500F0E5FA0021A01500F0DF
:101DE000E1FA10BD10B50121084600F0DBFA002130
:101DF000012000F0D7FA10BD2DE9F0410246002580
:101E00000026002000230024002791F803C00CF0D6
:101E10000F0591F803C00CF0100CBCF1000F03D0BB
:101E200091F802C04CEA050591F800C0BCF1000F22
:101E300031D0146800202BE04FF0010C0CFA00F3B5
:101E4000B1F800C00CEA03069E4220D183004FF097
:101E50000F0C0CFA03F7BC4305FA03FC4CEA04042C
:101E600091F803C0BCF1280F06D14FF0010C0CFA19
:101E700000FCC2F814C00AE091F803C0BCF1480F9E
:101E800005D14FF0010C0CFA00FCC2F810C0401C48
:101E90000828D1D31460B1F800C0BCF1FF0F34DDC5
:101EA000546800202EE000F1080C4FF0010808FAF9
:101EB0000CF3B1F800C00CEA03069E4221D1830066
:101EC0004FF00F0C0CFA03F7BC4305FA03FC4CEA85
:101ED000040491F803C0BCF1280F05D100F1080CEF
:101EE00008FA0CF8C2F8148091F803C0BCF1480F4E
:101EF00007D100F1080C4FF0010808FA0CF8C2F8FD
:101F00001080401C0828CED35460BDE8F0814FF605
:101F1000FF710180022181700421C1707047024667
:101F2000002093680B400BB1012000E000207047B7
:101F30000146886880B2704702460020D3680B4093
:101F40000BB1012000E0002070470146C86880B254
:101F5000704701617047416170470AB1016100E05B
:101F600041617047C16070474FF480320A4382611B
:101F70008161826182698269704702460020434B19
:101F800018684FF68073184040EA021008433F4B30
:101F9000186070473E49C8617047F0B50A46002393
:101FA00000240021002500F00046B6F1004F02D1C8
:101FB000364EF16901E0354E7168C0F3034583B2D6
:101FC00000F44016B6F5401F08D121F070612F4E85
:101FD000766826F070662D4F7E6012E000F4801661
:101FE000B6F5801F06D1032606FA05F4A14341F099
:101FF000706106E0460D360103FA06F6B14341F082
:10200000706122B1460D360103FA06F6314300F045
:102010000046B6F1004F02D11C4EF16101E01B4EAB
:102020007160F0BD30B500228B071C0F0F2303FA3F
:1020300004F2164B08338C1053F824309343134C9E
:1020400008348D1044F8253023468C1053F8243082
:102050008C07240F00FA04F423430C4C08348D1031
:1020600044F8253030BD0A49DC3108607047000073
:1020700000080140000C0140001001400014014024
:1020800000180140001C01400020014000000140F8
:1020900000002042DF48006840F00100DD49086090
:1020A00008464068DC490840DA494860084600684C
:1020B000DA490840D74908600846006820F48020C3
:1020C00008600846406820F4FE0048604FF41F0096
:1020D00088607047CF49096821F48031CD4A11608A
:1020E0001146096821F480211160B0F5803F03D0CA
:1020F000B0F5802F0ED106E0C649096841F4803161
:10210000C44A116007E0C349096841F4A021C14AEB
:10211000116000E000BF00BF704710B5014600220B
:10212000002300204A11012A02D1BA4C236806E09C
:10213000022A02D1B74C236A01E0B64C636A01F06F
:102140001F02012494401C400CB1012000E000203B
:1021500010BD38B5002000900024002500BF3120BC
:10216000FFF7DBFF05460098401C00900098B0F593
:10217000A06F01D0002DF2D03120FFF7CEFF08B1C3
:10218000012400E00024204638BD01460020A14A79
:10219000106820F0F80040EAC10010607047A049C4
:1021A00008607047024600209A4B586820F47C1063
:1021B00042EA01031843974B5860704798490866F4
:1021C000704701460020934A506820F003000843FE
:1021D000506070478F48406800F00C00704701461F
:1021E00000208C4A506820F0F0000843506070478F
:1021F00001460020874A506820F4E06008435060A0
:10220000704701460020834A506820F4605040EA3D
:10221000C1005060704729B17E4A527A02437D4B1B
:102220005A7204E07B4A527A82437A4B5A72704760
:102230007B49D8310860704701460020754A5068D4
:1022400020F440400843506070470021714A20321A
:102250001170704A82F82010012802D004280AD197
:1022600004E001216B4A2032117005E00521694A22
:102270002032117000E000BF00BF7047694908605C
:1022800070476449096A0143624A116270476549AF
:1022900044390860704730B5002100220024002333
:1022A0005C4D6D6805F00C0121B1042905D00829A9
:1022B00023D105E05C4D056022E05B4D05601FE029
:1022C000544D6D6805F47012524D6D6805F48034FC
:1022D000022505EB92421CB9544D554305600BE0B5
:1022E0004C4D6D6805F400351DB1504D55430560EA
:1022F00002E04D4D5543056002E04B4D056000BFC7
:1023000000BF444D6D6805F0F0010909484D6B5C54
:102310000568DD4045603F4D6D6805F4E061090AE0
:10232000434D6B5C4568DD4085603A4D6D6805F452
:102330006051C90A3E4D6B5C4568DD40C560354D56
:102340006D6805F44041890B3A4D6B5CC568B5FB7F
:10235000F3F5056130BD29B12E4A526902432D4B78
:102360005A6104E02B4A526982432A4B5A617047F2
:1023700029B1284A92690243264B9A6104E0254A12
:1023800092698243234B9A61704729B1214AD269ED
:102390000243204BDA6104E01E4AD26982431D4B9E
:1023A000DA61704729B11B4AD2680243194BDA60DF
:1023B00004E0184AD2688243164BDA60704729B1AC
:1023C000144A12690243134B1A6104E0114A12695C
:1023D0008243104B1A6170471249403908607047B8
:1023E0000F49C86470470B49C87170470948406A73
:1023F00040F0807007494862704701460020054A56
:1024000092680A400AB1012000E0002070470149AB
:1024100088727047001002400000FFF8FFFFF6FED0
:10242000000042428004424200127A0000093D004E
:10243000210000203100002010B50120FFF7CCFF63
:102440000020FFF7C9FF10BD2A49086070472949DD
:10245000091F0860704727498431086070470146AA
:102460000020254A10884FF67F4210400843224A38
:1024700010807047014600201F4A10884FF6807276
:10248000104008431C4A1080704708B50022009293
:10249000194A2C3A0092009A02440092009A116064
:1024A00008BD08B501460020009013482C38009064
:1024B0000098084400900098008808BD0D489C30A2
:1024C0000068C0B270470C480830008840F0010036
:1024D00009490831088070470648A0300068C0B23A
:1024E000704705480830008840F002000249083172
:1024F0000880704704860D422C6C004010B5012105
:102500000807FFF75CFF00214FF08050FFF757FFEF
:1025100010BD2A4908627047284908617047014682
:102520000020274A106820F0E00008431060704740
:102530002249A0310860704710B502460020204BA8
:10254000186820F00300104318601E4B1B6843F00E
:1025500004031C4C2360012901D130BF00E020BFDF
:10256000184B1B6823F00403164C236010BD14485D
:10257000006840F00400124908600846006840F016
:10258000020008600F48006840F004000D49086030
:1025900000BF00BF30BF704701460020084A5268A4
:1025A0000A400AB1012000E0002070470449096890
:1025B00041EA8001024A11607047000000000E42AB
:1025C0000070004010ED00E010B50446FB48844266
:1025D00009D101218803FFF7E5FE00214FF4804077
:1025E000FFF7E0FE32E0F648844209D101214804B9
:1025F000FFF7E5FE00214FF40030FFF7E0FE25E095
:10260000F048844209D101218804FFF7D8FE002157
:102610004FF48020FFF7D3FE18E0EB48844209D145
:102620000121C804FFF7CBFE00214FF40020FFF783
:10263000C6FE0BE0E548844208D101210805FFF7FA
:10264000BEFE00214FF48010FFF7B9FE10BD2DE94A
:10265000F04786B005460E460024A24600BFA146BC
:102660000027B08900B100BF2F462C8A4CF6FF70BE
:102670000440F08804432C82AC894EF6F3100440E9
:10268000B08831890843718908430443AC81AC8A1E
:102690004FF6FF400440B0890443AC8201A8FFF725
:1026A000FAFDC648874202D1DDF810A001E0DDF84E
:1026B0000CA0A88900F4004040B10AEBCA0000EB6E
:1026C0000A1031684900B0FBF1F807E00AEBCA00D4
:1026D00000EB0A1031688900B0FBF1F86420B8FB08
:1026E000F0F004012009642101FB1089A88900F49D
:1026F000004040B1322000EBC900B0FBF1F000F027
:102700000700044308E0322000EB09106421B0FB0D
:10271000F1F000F00F0004432C8106B0BDE8F08713
:102720004FF41651016000218180C18001810C218C
:10273000418100218181704710B502460020108A36
:102740004FF2FF0318400B884C8823438C882343A7
:10275000CC8823431843108210BD002101804180A2
:102760008180C180704721B1828942F40052828108
:1027700004E082894DF6FF731A4082817047F0B5FC
:102780000346002400260025002040F66A17B942BF
:1027900000D100BF1846C1F3421401F01F06012703
:1027A00007FA06F5012C01D10C3004E0022C01D10E
:1027B000103000E014301AB107682F43076002E0C0
:1027C0000768AF430760F0BD1AB1838A0B43838269
:1027D00002E0838A8B4383827047028A4FF6F0734C
:1027E0001A400282028A0A430282704782894FF2AB
:1027F000FF731A40828182890A438281704721B126
:10280000828942F00202828104E082894FF6FD73E0
:102810001A4082817047028A4FF6DF731A400282A3
:10282000028A0A430282704721B1028A42F480423E
:10283000028204E0028A4BF6FF731A40028270475C
:10284000C1F308028280704701468888C0F30800FF
:102850007047818941F0010181817047028BD2B2BA
:102860000283028B42EA012202837047028B02F448
:102870007F420283028B0A430283704721B1828A1E
:1028800042F02002828204E0828A4FF6DF731A400F
:102890008282704721B1828A42F01002828204E073
:1028A000828A4FF6EF731A408282704721B1828A82
:1028B00042F00802828204E0828A4FF6F7731A40DF
:1028C0008282704721B1828942F40042828103E012
:1028D0008289C2F30E028281704721B1828A42F45A
:1028E0000062828204E0828A4FF2FF731A40828281
:1028F0007047828A4FF6FB731A408282828A0A43AB
:102900008282704721B1828A42F00202828204E010
:10291000828A4FF6FD731A40828270470246002079
:10292000B1F5007F00D100BF13880B400BB101202F
:1029300000E00020704701F40072B2F5007F00D182
:1029400000BFCA430280704770B5024600240023CE
:102950000025002040F66A16B14200D100BFC1F345
:10296000421501F01F03012606FA03F3012D02D1DF
:102970009689334006E0022D02D1168A334001E0E9
:10298000968A33400C12012606FA04F41688344065
:1029900013B10CB1012000E0002070BD10B5002281
:1029A000002340F66A14A14200D100BF0A1201249C
:1029B0009440A3B2DC43048010BD00000038014005
:1029C0000044004000480040004C004000500040DF
:1029D00010B50446FE48844208D10121C014FFF717
:1029E000E1FC0021E014FFF7DDFCC4E0B4F1804F0E
:1029F00008D101210846FFF7E2FC00210120FFF782
:102A0000DEFCB8E0F348844208D101210220FFF740
:102A1000D6FC00210220FFF7D2FCACE0EE48844255
:102A200008D101210420FFF7CAFC00210420FFF790
:102A3000C6FCA0E0E948844208D101210820FFF744
:102A4000BEFC00210820FFF7BAFC94E0E448844271
:102A500008D101211020FFF7B2FC00211020FFF760
:102A6000AEFC88E0DF48844208D101212020FFF736
:102A7000A6FC00212020FFF7A2FC7CE0DA4884427B
:102A800008D101214014FFF78DFC00216014FFF7ED
:102A900089FC70E0D548844209D10121C804FFF7C0
:102AA00081FC00214FF40020FFF77CFC63E0D0485C
:102AB000844209D101210805FFF774FC00214FF47D
:102AC0008010FFF76FFC56E0CA48844209D101210B
:102AD0004805FFF767FC00214FF40010FFF762FC88
:102AE00049E0C548844208D101214020FFF767FC36
:102AF00000214020FFF763FC3DE0C048844208D13C
:102B000001218020FFF75BFC00218020FFF757FCAC
:102B100031E0BB48844208D101218015FFF74FFC0A
:102B20000021A015FFF74BFC25E0B648844209D1EF
:102B300001210804FFF736FC00214FF48030FFF735
:102B400031FC18E0B048844209D101214804FFF764
:102B500029FC00214FF40030FFF724FC0BE0AB48C8
:102B6000844208D101218804FFF71CFC00214FF4A6
:102B70008020FFF717FC10BD00220288944B98427A
:102B80000ED0994B98420BD0B0F1804F08D0914BAA
:102B9000984205D0904B984202D0904B984204D175
:102BA0004FF68F731A404B881A438D4B984207D0CB
:102BB0008C4B984204D04FF6FF431A40CB881A43FF
:102BC00002808B8883850B880385814B98420BD0CC
:102BD000854B984208D08B4B984205D08A4B98423F
:102BE00002D08A4B984201D10B7A0386012383825B
:102BF000704770B5002400220023058C4FF6FE7646
:102C000035400584028C8388048B4FF68F752C40E9
:102C1000B51E2C400D882C43751E2A400D892A4371
:102C20004D882A436A4DA8420BD06F4DA84208D068
:102C3000744DA84205D0744DA84202D0734DA842ED
:102C400013D14FF6F7752A404D892A434FF6FB758D
:102C50002A408D882A434FF6FF652B404FF6FF55DB
:102C60002B408D892B43CD892B4383800483CD88D2
:102C70008586028470BD70B5002400220023058C77
:102C80004FF6EF7635400584028C8388048B48F636
:102C9000FF752C404FF6FF452C400D884FF6FF7610
:102CA00006EA05252C434FF6DF752A400D8906EA12
:102CB00005152A434D8806EA05152A43444DA842C6
:102CC00002D0494DA8421DD14FF67F752A404D894B
:102CD0004FF6FF7606EA05152A434FF6BF752A40E0
:102CE0008D8806EA05152A434FF6FF352B404FF233
:102CF000FF752B408D8906EA85052B43CD8906EAB1
:102D000085052B4383800483CD880587028470BDAD
:102D100070B5002400220023058C4FF6FF66354075
:102D20000584028C8388848B4FF68F752C404FF678
:102D3000FC752C400D882C434FF6FF552A400D8919
:102D40004FF6FF7606EA05252A434D8806EA052553
:102D50002A431F4DA84202D0234DA8421DD14FF255
:102D6000FF752A404D894FF6FF7606EA05252A436E
:102D70004FF6FF352A408D8806EA05252A434EF690
:102D8000FF752B404DF6FF752B408D8906EA051522
:102D90002B43CD8906EA05152B4383808483CD8898
:102DA0008587028470BD70B5002200230024058C45
:102DB0004EF6FF7635400584038C8488828B48F676
:102DC000FF752A404FF6FF452A400D8820E000009D
:102DD000002C01400004004000080040000C0040AE
:102DE000001000400014004000340140004C01403D
:102DF000005001400054014000180040001C0040F9
:102E000000200040004001400044014000480140D3
:102E10004FF6FF7606EA05252A434DF6FF752B404F
:102E20000D8906EA05352B434D8806EA05352B4307
:102E3000FA4DA84202D0FA4DA84208D14BF6FF75D0
:102E40002C408D894FF6FF7606EA85152C43848049
:102E50008283CD88A0F84050038470BD828B4FF2EE
:102E6000FF331A408283828B4FF6FF7303EA0123FC
:102E70001A4382837047F0B50C46154600220021A4
:102E80000026078C4EF6FF7C07EA0C070784828B2E
:102E9000018C4FF6FF7707EA043640F6FF473A40C9
:102EA0004FF6FF7707EA05273A434FF6FF7707EA21
:102EB00003373A43D94FB8420ED0D94FB8420BD05E
:102EC000B0F1804F08D0D74FB84205D0D64FB842A6
:102ED00002D0D64FB84206D14DF6FF77394046F4BE
:102EE0008057394305E047F6FF57394044F480578F
:102EF000394382830184F0BD828B4FF6F3731A400D
:102F00008283828B0A4382837047F0B50C46154654
:102F1000002200210026078C4FF6FF6C07EA0C0701
:102F20000784828B018C4FF6FF7707EA04264FF661
:102F30000C773A404FF6FF7707EA03172F433A43DF
:102F4000B64FB8420ED0B64FB8420BD0B0F1804F5A
:102F500008D0B44FB84205D0B34FB84202D0B34FF7
:102F6000B84206D14FF6FF57394046F480773943CF
:102F700005E04FF2FF57394044F4807739438283AC
:102F80000184F0BD028B4FF2FF331A400283028BA3
:102F90004FF6FF7303EA01231A4302837047F0B52B
:102FA0000C461546002200210026078C4FF6EF7CC8
:102FB00007EA0C070784028B018C4FF6FF7707EABC
:102FC000041640F6FF473A404FF6FF7707EA03370B
:102FD0003A434FF6FF7707EA05273A438F4FB84247
:102FE0000ED08F4FB8420BD0B0F1804F08D08D4F2C
:102FF000B84205D08C4FB84202D08C4FB84206D1AF
:103000004FF6DF77394046F01007394305E04FF6B9
:103010005F77394044F01007394302830184F0BDE3
:10302000028B4FF6F3731A400283028B0A4302832A
:103030007047F0B50C46154600220021068C4FF66D
:10304000FE773E400684028B018C4FF60C763240B0
:103050007E1C06EA03162E433243704EB0420ED059
:103060006F4EB0420BD0B0F1804F08D06D4EB042E1
:1030700005D06D4EB04202D06C4EB04206D14FF634
:10308000FD76314044F00106314305E04FF6F57618
:10309000314044F00106314302830184F0BD70B534
:1030A00005460C465D4885420ED05D4885420BD0F2
:1030B000B5F1804F08D05B48854205D05A4885421B
:1030C00002D05A48854200D100E000BF208850B9A4
:1030D0002389A28861882846FFF7ABFFE18828464C
:1030E000FFF79EFF25E0208804280AD12389A288C3
:1030F00061882846FFF753FFE1882846FFF742FF23
:1031000017E0208808280AD12389A28861882846E8
:10311000FFF7FBFEE1882846FFF7EEFE09E0238972
:10312000A28861882846FFF7A6FEE1882846FFF7B7
:1031300095FE70BD2DE9F04105460C46002601279D
:10314000608808B9022600E00026A088012801D185
:10315000022700E001272088A0B92389A28861887E
:103160002846FFF766FFE1882846FFF759FF2389C5
:103170003A4631462846FFF712FFE1882846FFF716
:1031800001FF13E02389A28861882846FFF707FF23
:10319000E1882846FFF7F6FE23893A46314628465D
:1031A000FFF747FFE1882846FFF73AFFBDE8F081C7
:1031B0000A884B881A438B881A43CB881A430B8999
:1031C0001A434B891A438B891A43A0F8442070474D
:1031D0004FF6FF71818000210180C1804180017222
:1031E00070470021018041808180C180018141813F
:1031F0008181C1817047002101804180012181804E
:103200000021C180018170470021018041808180BF
:10321000C18001814181818170470000002C014003
:10322000003401400004004000080040000C004051
:1032300021B1028842F00102028004E002884FF6C8
:10324000FE731A400280704731B1B0F8442042F456
:103250000042A0F8442005E0B0F84420C2F30E027A
:10326000A0F8442070471AB183890B43838102E0A0
:1032700083898B43838170478182704741EA0203CF
:10328000A0F8483070471AB183890B43838102E06C
:1032900083898B438381704701894FF6F87211400F
:1032A000018170470A46002101894FF68F7319404A
:1032B00011430181704730B504460D46294620462A
:1032C000FFF7F0FF208940F00700208130BD2DE995
:1032D000F04104460D4616461F46602D06D13B467A
:1032E000012231462046FFF75AFE05E03B46012207
:1032F00031462046FFF79DFE29462046FFF7D2FFC4
:10330000208940F007002081BDE8F08130B50C46EF
:1033100000210189C9B24FF6FF7505EA032515435F
:1033200025432943018130BD2DE9F04105460E4674
:1033300017469846002443463A4631462846FFF74A
:10334000E5FF2C894FF6F870044044F007044FF66F
:103350008F70044044F070042C81BDE8F081F0B51A
:1033600004460D4616461F463B4632462946204631
:10337000FFF7CCFF208940F480402081F0BD01851B
:10338000828270470A46002101884FF68F731940E8
:10339000114301807047F0B50C4615461E460021CA
:1033A000002200230189028B038C4FF6F877394005
:1033B00021434FF6FC473A4040F201173A434FF69B
:1033C000DD773B404FF6FF7707EA06172F433B4375
:1033D000018102830384F0BD0A460021018B4FF670
:1033E0008F7319401143018370470A460021018BF6
:1033F00048F6FF7319404FF6FF7303EA022319439F
:10340000018370470A460021818B4FF68F73194064
:103410001143818370470A460021818B48F6FF7370
:1034200019404FF6FF7303EA022319438183704763
:1034300021B1028842F08002028004E002884FF647
:103440007F731A400280704721B1828842F00402E3
:10345000828004E082884FF6FB731A4082807047B6
:1034600021B1828842F00802828004E082884FF60F
:10347000F7731A408280704721B1828842F00102BE
:10348000828004E082884FF6FE731A408280704783
:103490000A460021018B4FF6F7731940114301834F
:1034A00070470A460021018B4FF2FF7319404FF617
:1034B000FF7303EA02231943018370470A46002180
:1034C000818B4FF6F77319401143818370470A4689
:1034D0000021818B4FF2FF7319404FF6FF7303EA0F
:1034E00002231943818370470A460021018B4FF65E
:1034F000FB7319401143018370470A460021018B79
:103500004FF6FF3319404FF6FF7303EA02231943C6
:10351000018370470A460021818B4FF6FB731940E7
:103520001143818370470A460021818B4FF6FF3398
:1035300019404FF6FF7303EA022319438183704752
:103540000A460021018B4FF67F7319401143018316
:1035500070470A460021018BC1F30E014FF6FF733D
:1035600003EA02231943018370470A460021818B35
:103570004FF67F7319401143818370470A4600213B
:10358000818BC1F30E014FF6FF7303EA0223194347
:10359000818370470A460021018C4FF6FD73194064
:1035A0001143018470470A460021018C4FF6F773DE
:1035B00019401143018470470A460021018C4FF6DF
:1035C000DF7319404FF6FF7303EA021319430184B6
:1035D00070470A460021018C4FF67F7319404FF661
:1035E000FF7303EA02131943018470470A4600215E
:1035F000018C4FF6FF5319404FF6FF7303EA022385
:103600001943018470470A460021018C4FF2FF7371
:1036100019404FF6FF7303EA0223194301847047F0
:103620000A460021018C4DF6FF7319404FF6FF73D7
:1036300003EA023319430184704730B500230124A3
:103640008C40A3B2048C9C430484048C02FA01F5E0
:10365000ADB22C43048430BD30B5002304248C402B
:10366000A3B2048C9C430484048C02FA01F5ADB22D
:103670002C43048430BD70B5034600200024184656
:10368000183001258D40ACB21D8CA5431D8409B1B5
:10369000082909D100EB6100056825F07005056077
:1036A0000568154305600EE00D1FC5F34E0528445F
:1036B000056825F4E045056005684FF6FF7606EAE3
:1036C00002263543056070BD21B1028842F0020236
:1036D000028004E002884FF6FD731A4002807047B2
:1036E00021B1028842F00402028004E002884FF611
:1036F000FB731A400280704721B1828842F0800239
:10370000828004E082884FF67F731A40828070477F
:1037100002884FF6F7731A40028002880A4302803B
:10372000704782884FF68F731A40828082880A43DE
:103730008280704702894FF6F8731A40028102892D
:103740000A430281704702894FF67F731A40028153
:1037500002890A43028170478184704781857047DE
:10376000818670470187704781877047A0F84010B5
:10377000704702884FF6FF431A40028002880A43CE
:10378000028070470146888E70470146088F704757
:103790000146888F70470146B1F8400070470146E6
:1037A000888C70470146088D704702460020138AB6
:1037B0000B400BB1012000E000207047CA43028299
:1037C000704730B50246002000230024158A05EA20
:1037D0000103958905EA010413B10CB1012000E051
:1037E000002030BDCA4302827047000086B0092124
:1037F0004FF48030FCF7E9FDFCF735FEFCF7F6FEF0
:10380000FDF7CCFFFCF724FF2D480068FDF71EF9FB
:10381000FEF7F0F800F045F90A20FCF759FE002009
:103820008723F02201460090FDF79CF90020182123
:10383000CDE900014FF4FC6322A21021029008465A
:10384000FDF720FE00202021CDE900014FF4784350
:1038500021A238210290A020FDF723FD2EE0FDF7E4
:1038600070F801210020FCF7D3FE00F037F91B4966
:10387000086000210846FCF7CBFE1848006800F0FD
:10388000FBF904460D46002020214FF47843CDE992
:103890000230CDE90410022122462B46CDE900106A
:1038A00038214020FDF759FE0C48006800F0E4F98B
:1038B000044622460B460AA000F0C8FCCFE70000F1
:1038C0001C00002020544D503131392045564D20E8
:1038D00044454D4F20000000A1E6000038000020C4
:1038E00054656D7065726174757265203D20252E7A
:1038F000326620A1E60D0A0070B506460D46144654
:10390000814805702012804948708C70032230462F
:10391000FEF74CF970BD70B506460C4600257A4896
:103920000470012201463046FEF740F90222764932
:103930003046FEF75DF974480578407800EB0520C5
:1039400085B2284670BD10B5002070490860084651
:10395000007820F00200801C08700846008882B2BF
:1039600001219020FFF7C8FF10BD70B504460D4639
:1039700016460020654908600846407864F3C40094
:1039800048700846407865F30200487008460078A1
:1039900066F3461008700846007820F010000870A2
:1039A0000846007820F0080008700846007820F0EB
:1039B0000400001D08700846008882B20121902092
:1039C000FFF79AFF70BD2DE9F04104460D46022C29
:1039D00001D0032C0DD14FF07051284600F0ECF8C7
:1039E000074600F030F986B2324621469020FFF7B4
:1039F00083FFBDE8F08170B504460D4600204449C0
:103A00000860062C01D0082C23D14148407820F0D2
:103A1000800080303E4948700846008882B2042108
:103A20009020FFF769FF0820FCF752FD0421902049
:103A3000FFF771FF3649086008464078C0F38010F0
:103A400028B92A4621469020FFF756FF01E00120C1
:103A500070BD0020FCE710B50446052C03D0062CF1
:103A600001D0082C04D121469020FFF754FF10BD4F
:103A70000020FCE770B504464FF07051204600F07E
:103A80009BF8064600F0DFF885B22A460721902011
:103A9000FFF732FF70BD10B50F219020FFF73BFFFD
:103AA00010BD08B501217C20FEF762FC4020ADF876
:103AB000000003208DF8020048208DF803006946BD
:103AC0001448FEF799F9FFF73EFF0A20FCF700FDC6
:103AD000022200210846FFF748FF08BD70B5002408
:103AE00000BF0D4800680028FBD100219020FFF79F
:103AF00012FF04B2204600F09DF805464FF07051C9
:103B000000F028F870BD0000980000204000002060
:103B1000480000200010014018012242D2B201E00A
:103B200000F8012B491EFBD270470022F6E710B5C2
:103B300013460A4604461946FFF7F0FF204610BD1B
:103B4000CAB2401E10F8011F8A4202D00029F9D1E2
:103B50000020704780EA010210B502F000434000E7
:103B600022D04A001FD0010E01EB1261C0F35600B3
:103B7000C2F3560240F4000042F40002A0FB02200F
:103B800000047F39140400D0401C50EA124001D4D4
:103B90004000491EC2B20C0604EBD010401C400885
:103BA000802A02D003E0002010BD20F0010000298F
:103BB00000DA0020184310BD30B480EA010202F0A0
:103BC000004530F0004221F0004013D090B1C30D09
:103BD000D40DC2F31601C0F31600E41A41F400013B
:103BE00040F400027D34914201D3641C00E049009E
:103BF000002C02DA30BC002070474FF40000002394
:103C0000914201D3891A034340084FEA4101F7D199
:103C100051B1914202D14FF0004105E002D24FF084
:103C2000010101E06FF0010103EBC450284430BCF6
:103C300000F07CB8C10F80EAE0700844CA07962300
:103C4000002100F07CB800F0004220F00040C10DDF
:103C5000C0F3160040F400007F2901DA002070470D
:103C6000962903DCC1F19601C84001E096398840ED
:103C7000002AF4D04042704700F0004230F000408B
:103C80000AD0C10D01F56071C0F3160042EA01517E
:103C9000C20840071143704700200146704730B505
:103CA0000B46014600202022012409E021FA02F5FA
:103CB0009D4205D303FA02F5491B04FA02F5284494
:103CC000151EA2F10102F1DC30BD2DE9F05F0546C1
:103CD000002092469B4688460646814640241BE0CB
:103CE000284641464746224600F031FA53465A4696
:103CF000C01A914110D311461846224600F018FA16
:103D00002D1A67EB01084F4622460120002100F0E2
:103D10000FFA17EB00094E41201EA4F10104DFDC6D
:103D2000484631462A464346BDE8F09F0029A8BFD1
:103D30007047401C490008BF20F00100704710B4D4
:103D4000B0FA80FC00FA0CF050EA010404BF10BC89
:103D5000704749B1CCF1200421FA04F411FA0CF1B6
:103D600018BF012121430843A3EB0C01CB1D4FEAEF
:103D700000614FEA102042BF002010BC704700EBEA
:103D8000C35010440029A4BF10BC7047401C490018
:103D900008BF20F0010010BC70472DE9FE4F80469F
:103DA00081EA0300C00F0C46009021F0004123F08F
:103DB0000045B8EB0200A94105D240462146904695
:103DC0001C460B46024623F00040104347D0270D07
:103DD000C7F30A00C3F30A510290401A0190402829
:103DE0006BDAC3F3130040F4801B0098924620B1B5
:103DF0000023D2EB030A63EB0B0B01985946C0F189
:103E00004002504600F094F906460D465046594689
:103E1000019A00F0ACF910EB08006141002487EA38
:103E2000115284EAE7731A4340D0009A62B3019AB0
:103E3000012A4FEA075215DC001B61EB02014FF02B
:103E4000004202EA0752CDE90042001C41F5801110
:103E500032462B4600F0ACF903B0BDE8F08F404687
:103E60002146F9E7001B61EB0201001C41F58013BC
:103E700000185B412018A2F5001747EB030140EA48
:103E8000D570B6196D4111E06D084FEA360645EA66
:103E9000C0754FEA0752001B61EB0201001C41F59F
:103EA000801149084FEA30000019514132462B4633
:103EB00003B0BDE8F04F00F06CB90098012240005B
:103EC0000023D0EB020263EBE073009821464FEA37
:103ED000E074B8EB000061EB0401E9E783F0004314
:103EE0005BE781F0004158E72DE9FE4F81EA0304CA
:103EF00004F0004421F0004100944FF0000B23F047
:103F0000004350EA01045ED052EA03045BD0C3F3DD
:103F10000A54C1F30A552C44A4F2F3340194A0FBD3
:103F20000254C1F3130141F48011C3F3130343F4AA
:103F3000801301FB024400FB034E840A970A44EA03
:103F4000815447EA8357A4FB076802958D0A05FB55
:103F500007854FEA932C04FB0C542705029D4FEA7A
:103F6000065847EA1637B5EB08056EEB070C870EC7
:103F7000920E47EA811742EA8312A7FB0201B6EBD1
:103F80000B0164EB00042B0D43EA0C335E1844EB89
:103F90001C50DA465146E7FB0201C5F313044FEA11
:103FA0000B3343EA14534FEA0432019C43EA0603FD
:103FB000A4F10C040294009CCDE900B400F0F8F8E0
:103FC00003B0BDE8F08F00200146F9E72DE9F04D80
:103FD00081EA030404F0004B21F0004514464FF041
:103FE000000A23F0004150EA050220D054EA010201
:103FF0001DD0C5F30A570246C5F31303C1F31300DE
:10400000C1F30A5640F4801543F48013A7EB060869
:10401000101BD64608F2FD3873EB050002D308F1F9
:10402000010801E092185B41B8F1000F03DA0020AB
:104030000146BDE8F08D00204FF48011064684460D
:104040000EE0171B73EB050705D3121B63EB05038B
:1040500006434CEA010C49084FEA300092185B41D4
:1040600050EA0107EDD152EA030012D082EA0400BF
:1040700083EA0501084305D0101BAB4106D201229B
:10408000002306E000224FF0004302E06FF001023F
:1040900053101AEB06004CEB085110EB0A0041EBF1
:1040A0000B01BDE8F04D00F074B8C1F30A52C1F342
:1040B000130140F2FF3341F480119A4202DA0020EA
:1040C0000146704740F233439A42A2F2334202DC87
:1040D000524200F03CB800F02BB8000030B5041E8E
:1040E00071F1000404DB4FF00044404264EB010135
:1040F000141E73F1000405DB1C464FF000435242CE
:1041000063EB0403994208BF904230BD064C074D53
:1041100006E0E06840F0010394E807009847103497
:10412000AC42F6D3FCF708F8509C0008709C0008DD
:10413000202A04DB203A00FA02F100207047914067
:10414000C2F1200320FA03F3194390407047202A5C
:1041500004DB203A21FA02F00021704721FA02F331
:10416000D040C2F120029140084319467047202AEE
:1041700006DBCB17203A41FA02F043EAE07306E08F
:1041800041FA02F3D040C2F120029140084319469F
:10419000704710B5141E73F1000408DA401C41F199
:1041A000000192185B411A4301D120F0010010BDBB
:1041B0002DE9F04D92469B4611B1B1FA81F202E031
:1041C000B0FA80F220329046FFF7B2FF04460F4665
:1041D00040EA0A0041EA0B0153465A46084313D00D
:1041E000114653EA010019D0C8F140025046FFF7CA
:1041F000AEFF05460E46504659464246FFF798FF29
:10420000084305D0012004E020463946BDE8F08D82
:104210000020054346EAE0762C4337430A986305BD
:10422000E40AA0EB08000022FD0A44EA47540A30E1
:1042300002D500200146E9E7010510196941DDE9D1
:10424000084500196941BDE8F04DA2E70FB4054BE0
:1042500010B503A9044A029800F0DEF810BC5DF81E
:1042600014FB00003D0B0008580000200FB41CB5E3
:104270000A46521ECDE9000207A9054B6A46069878
:1042800000F0CAF8009A002111701CBC5DF814FB04
:10429000474B000802E008C8121F08C1002AFAD1E3
:1042A00070477047002001E001C1121F002AFBD1B6
:1042B000704700002DE9FF5FDDE90220010DDDF808
:1042C00038B0024318D044F61050A1F2FF314143F8
:1042D0000D140F98012820D0A5EB0B00401C5FEABD
:1042E000000A4FF00004474EDFF81C91A0465046EC
:1042F00016D5CAF1000728E00F98012443A201282F
:1043000008D0002100980F9BC0E90021C0E90243BA
:10431000BDE8FF9F6FEA0B01F4E7CBF10000DEE799
:10432000074612E0F80707D0224633464046494682
:10433000FFF7DAFD80468946224633461046194685
:10434000FFF7D2FD04460E467F10002FEAD1DDE9CB
:104350000201BAF1000F42464B4602DAFFF7C4FDF4
:1043600001E0FFF733FE04460E460022284BFFF71C
:10437000B5FE03D84FF0FF30014607E00022254B81
:1043800020463146FFF709FDFFF78FFE102409E0B4
:10439000002C0ADB0A220023FFF797FC019B303236
:1043A0001A55641E50EA0102F2D1641C019AC4F14C
:1043B000110314440F9A012A03D0012208430DD19E
:1043C0000AE0084304D000204FF0110B0F9080E763
:1043D000A3EB0B056D1E0DE05B4504DD4FF0000205
:1043E00005F1010504E003DA4FF00002A5F1010533
:1043F000002AECD000980F99C0E90231C0E90045CD
:1044000086E70000000024400000F03F300000007C
:104410000000F0430000E03F2DE9FF4F95B09B46C0
:104420008946064600250FE2252877D10024274635
:10443000F84A0121059400E0044316F8013F203BAF
:1044400001FA03F01042F7D130782A2811D06FF02A
:104450002F033078A0F13002092A16D8059A44F0CB
:10446000020402EB820203EB42021044761C059028
:10447000EFE759F8042B0592002A03DA504244F47E
:104480000054059044F00204761C30782E2816D192
:1044900016F8010F44F004042A280DD06FF02F0203
:1044A0003078A0F13003092B09D807EB870302EB22
:1044B0004303C718761CF3E759F8047B761C307861
:1044C0006C280FD006DC4C2817D068280DD06A283D
:1044D00014D104E0742810D07A280FD10DE044F4F0
:1044E00000140AE044F4801401E044F440147278AB
:1044F000824202D104F58014761C761C307866283E
:104500000BD013DC582877D009DC002875D045285B
:10451000F6D04628F4D047281AD19DE118E0632848
:1045200035D0642879D0652812D195E1702873D0F0
:1045300008DC6728F1D069286FD06E280DD06F286D
:1045400006D1B5E073282CD0752875D0782874D0A2
:104550005A46179990476D1C75E1C4F30250022822
:1045600009D003280DD0D9F8001004280DD00D6013
:1045700009F1040967E1D9F80010EA17C1E900520E
:10458000F6E7D9F800100D80F2E70D70F0E719F8A2
:10459000041B8DF8001000208DF80100EA46012070
:1045A00003E059F804AB4FF0FF3061074FF0000112
:1045B00002D40DE008F101018846B9420FDA8045C6
:1045C000F8DB1AF808100029F4D108E008F101011D
:1045D00088468142FADB1AF808100029F6D10598BE
:1045E0005B46A0EB080721463846179A00F094FA7C
:1045F000284400EB080507E04DE029E10DE01AF83A
:10460000010B5A4617999047B8F10108F7D25B465B
:1046100021463846179A13E142E00A220092C4F379
:1046200002524FF0000A022A08D059F804CB032A9C
:104630004FEAEC710AD00DE029E02AE009F1070108
:1046400021F00702F2E802C1914609E00FFA8CFC62
:104650004FEAEC71042A03D14FFA8CFC4FEAEC715B
:10466000002907DA0A460021DCF1000C61EB0201A7
:104670002D2202E0220504D52B228DF804200122F0
:1046800003E0E20701D02022F7E7904659E00A2133
:1046900002E010220DE010214FF0000A00910BE023
:1046A00010224FF0000A44F004040827009203E0AF
:1046B00008224FF0000A0092C4F30252022A05D0E9
:1046C00059F804CB0021032A08D009E009F10701B9
:1046D00021F00702F2E802C1914605E01FFA8CFCC6
:1046E000042A01D10CF0FF0C4FF00008220728D556
:1046F000702806D0009B83F0100353EA0A0305D00C
:104700000EE040228DF80420012208E05CEA01025C
:1047100006D030228DF804208DF805000222904644
:10472000009B83F0080353EA0A030AD15CEA010202
:1047300001D1620705D530228DF804204FF0010821
:104740007F1E582804D034A003900EA802900DE0DC
:1047500036A0F9E753466046009AFFF7B6FA84465A
:104760000398825C0298401E029002705CEA01008D
:10477000F0D1029806A9081A00F1200A600702D5B4
:1047800024F4803400E00127574502DDA7EB0A003E
:1047900000E0002000EB0A01009005984144401A17
:1047A0000590E00306D45B462146179A059800F071
:1047B000B3F90544002706E001A85A46C05D1799E1
:1047C00090476D1C7F1C4745F6DBE0030CD55B462C
:1047D0002146179A059800F09FF9054404E030201F
:1047E0005A46179990476D1C0099481E0090002961
:1047F000F5DC08E0029802995A460078491C0291BB
:10480000179990476D1CBAF10001AAF1010AF1DC79
:1048100065E1000009280100303132333435363784
:1048200038396162636465660000000030313233FC
:10483000343536373839414243444546000000009C
:1048400000F058F90544761C307800287FF4ECAD70
:1048500019B02846BDE8F08F620700D4062709F199
:10486000070222F0070CFCE80223E14603F00048AF
:104870005FEA080C02D00FF2702C0DE05FEA045CD6
:1048800002D50FF2682C07E05FEAC47C02D00FF279
:10489000602C01E0AFF2700C4FF0FF3823F00043C2
:1048A000CDF850C065280CD006DC452809D0462834
:1048B0001DD047283DD13DE0662818D067287ED11D
:1048C00038E00021112F01DB112000E0781CCDE938
:1048D000000106A90EA8FFF7EDFCDDE90F010E9A15
:1048E00003910021009207F1010A04914DE04FF07D
:1048F00000400097CDE9011006A90EA8FFF7DAFCE9
:10490000DDE90F0203920E9B11990022DDF80CA045
:104910000093049211B9791C00EB010AB7EB0A006D
:1049200004D4C0F1FF3007F1010A0490AAEB07009C
:10493000019044E0012F00DA01270021112F01DD51
:10494000112000E03846CDE9000106A90EA8FFF7C6
:10495000B1FCDDE90F010E9A039100210491009250
:10496000BA4621070CD40399514500DA8A46BAF1B8
:10497000010F05DD009AAAF10101515C302908D030
:10498000B84202DA10F1040F06DA0121CDE9011074
:1049900015E0AAF10101E9E7002805DC04990144CA
:1049A0000491AAEB000102E0411C514500DD8A465A
:1049B0000499401A401C01904FF0004002902007DB
:1049C00004D40198504501DBCDF8048000208DF817
:1049D0004F0002980DF14F07B0F1004F25D02B206A
:1049E0000E9002984FF0020800280CDA4042029024
:1049F0002D200E9007E00A210298FFF750F9303180
:104A0000029007F8011DB8F10001A8F10108F2DCDD
:104A100002980028EFD1791E0E980870307800F0C7
:104A2000200040F0450007F8020D12A8C01B00F15D
:104A300007081498007800B1012000EB0A010198E2
:104A400001EBE07105984144401A401E0590E003D7
:104A500006D45B462146179A059800F05DF8054498
:104A60001498007818B15A46179990476D1CE003C6
:104A700024D55B462146179A059800F04DF8054469
:104A80001CE00498002807DBDDE90301884203DD10
:104A90000098405C179901E0179930205A469047DA
:104AA000049805F10105401C04900198401E0190F6
:104AB00004D12E205A46179990476D1CBAF1000177
:104AC000AAF1010ADDDC05E017F8010B5A46179937
:104AD00090476D1CB8F10001A8F10108F4DC5B46B9
:104AE0002146179A0598ABE62D0000002B00000028
:104AF000200000002DE9F041044600251E4617461F
:104B0000880404D405E039462020B0476D1C641E9B
:104B1000F9D52846BDE8F0812DE9F041044600258D
:104B20001E469046C80301D5302700E020278804A0
:104B300004D505E041463846B0476D1C641EF9D5E2
:104B40002846BDE8F0814A68002A06D00A68531C4E
:104B50000B6010704868401E4860704700000000FD
:104B60000000000000000000000004040404040031
:104B70000004000014140A000000000000000000FF
:104B800000000A0A1F0A0A1F0A0A000000040E1584
:104B900005060C14150E0400000012150D152E2C20
:104BA0002A1200000000040A0A3615152916000012
:104BB00002020100000000000000000010080804CC
:104BC0000404040408081000020404080808080883
:104BD0000404020000000004150E0E15040000007D
:104BE00000000008083E0808000000000000000067
:104BF000000000000202010000000000003F000071
:104C000000000000000000000000000000020000A2
:104C100000201010080804040202010000000E1118
:104C200011111111110E0000000004060404040407
:104C3000040E000000000E1111080402011F000004
:104C400000000E11100C1010110E00000000080CD6
:104C50000C0A091F081C000000001F01010F1110A1
:104C6000110E000000000C12010D1311110E0000B6
:104C700000001E10080804040404000000000E11C7
:104C8000110E1111110E000000000E111119161055
:104C900009060000000000000400000000040000FD
:104CA00000000000000400000004040000001008E0
:104CB0000402020408100000000000003F003F0052
:104CC00000000000000002040810100804020000A8
:104CD00000000E11110804040004000000001C2252
:104CE000292D2D1D221C0000000004040C0A0A1EA0
:104CF0001233000000000F12120E1212120F0000E9
:104D000000001E1101010101110E000000000F1230
:104D100012121212120F000000001F120A0E0A02D5
:104D2000121F000000001F120A0E0A0202070000F4
:104D300000001C1201013911120C00000000331296
:104D4000121E12121233000000001F040404040497
:104D5000041F000000003E080808080808080907AA
:104D6000000037120A060A1212370000000007027C
:104D700002020202223F000000003B1B1B1B151514
:104D80001535000000003B1216161A1A1217000003
:104D900000000E1111111111110E000000000F1270
:104DA000120E02020207000000000E11111111176D
:104DB000190E180000000F12120E0A12123700000E
:104DC00000001E1101060810110F000000001F1541
:104DD00004040404040E0000000033121212121224
:104DE000120C000000003312120A0A0C0404000026
:104DF0000000151515150E0A0A0A000000001B0A0E
:104E00000A04040A0A1B000000001B0A0A0A040420
:104E1000040E000000001F0908040402121F000015
:104E20001C0404040404040404041C00000202041E
:104E300004040808081010000E08080808080808EC
:104E400008080E00040A0000000000000000000036
:104E500000000000000000000000003F020400000D
:104E6000000000000000000000000000000C121C08
:104E7000123C000000030202020E1212120E000089
:104E800000000000001C1202120C0000001810109C
:104E9000101C1212123C000000000000000C121E38
:104EA000021C000000182404041E0404041E000058
:104EB00000000000003C120C021C221C0003020235
:104EC000020E12121237000000040400000604044F
:104ED000040E000000080800000C08080808080775
:104EE00000030202021A0A060A1300000007040463
:104EF00004040404041F000000000000000F151546
:104F00001515000000000000000F121212370000FB
:104F100000000000000C1212120C00000000000043
:104F2000000F1212120E020700000000001C1212E5
:104F3000121C103800000000001B060202070000CF
:104F400000000000001E020C101E00000000000403
:104F5000041E0404041C000000000000001B1212C8
:104F6000123C000000000000001B0A0A04040000BC
:104F7000000000000015150E0A0A000000000000E5
:104F8000001B0A040A1B000000000000003312127C
:104F90000C08040300000000001E0804041E0000AA
:104FA00018080808080C0808080818000808080865
:104FB000080808080808080806040404040804048B
:104FC00004040600160900000000000000000000B4
:104FD00000000000000000000000000000000000D1
:104FE0000000000808080808080800001818000059
:104FF00000486C24120000000000000000000000C7
:105000000000002424247F1212127F1212120000CA
:105010000000081C2A2A0A0C1828282A2A1C08081A
:1050200000000022251515152A585454542200005A
:105030000000000C1212120A76252911916E000050
:10504000000606040300000000000000000000004D
:105050000040201010080808080808101020400020
:1050600000020408081010101010100808040200B4
:105070000000000008086B1C1C6B08080000000002
:1050800000000000080808087F0808080800000061
:1050900000000000000000000000000006060403FD
:1050A0000000000000000000FE0000000000000002
:1050B00000000000000000000000000006060000E4
:1050C0000000804040202010100808040402020064
:1050D000000000182442424242424242241800008A
:1050E000000000080E08080808080808083E00002C
:1050F0000000003C4242422020100804427E000092
:105100000000003C4242201820404042221C000087
:10511000000000203028242422227E202078000055
:105120000000007E0202021A26404042221C0000BB
:10513000000000382402021A2642424224180000CD
:105140000000007E2222101008080808080800004D
:105150000000003C4242422418244242423C0000EB
:10516000000000182442424264584040241C0000C1
:1051700000000000000018180000000018180000CF
:105180000000000000000008000000000008080403
:105190000000004020100804020408102040000015
:1051A0000000000000007F0000007F000000000001
:1051B0000000000204081020402010080402000033
:1051C0000000003C42424640201010001818000029
:1051D0000000001C225A555555552D42221C000036
:1051E0000000000808181414243C224242E7000082
:1051F0000000001F2222221E22424242221F0000E3
:105200000000007C4242010101010142221C000019
:105210000000001F2242424242424242221F00003E
:105220000000003F4212121E12120242423F0000D2
:105230000000003F4212121E12120202020700007A
:105240000000003C2222010101712122221C0000E9
:10525000000000E7424242427E42424242E70000F2
:105260000000003E0808080808080808083E00007A
:105270000000007C10101010101010101010110FF2
:105280000000007722120A0E0A1212222277000072
:10529000000000070202020202020202427F000036
:1052A00000000077363636362A2A2A2A2A6B000072
:1052B000000000E346464A4A5252526262470000EA
:1052C0000000001C2241414141414141221C00009B
:1052D0000000003F424242423E020202020700003A
:1052E0000000001C2241414141414D53321C6000ED
:1052F0000000003F4242423E1212222242C70000FA
:105300000000007C4242020418204042423E00005D
:105310000000007F4908080808080808081C000069
:10532000000000E74242424242424242423C000008
:10533000000000E742422224241414180808000048
:105340000000006B49494949555536222222000088
:10535000000000E7422424181818242442E7000023
:10536000000000772222141408080808081C000016
:105370000000007E2120101008040442423F00007B
:1053800000780808080808080808080808087800CD
:1053900000000202040408080810102020204040E9
:1053A000001E1010101010101010101010101E0001
:1053B0000038440000000000000000000000000071
:1053C000000000000000000000000000000000FFDE
:1053D00000060800000000000000000000000000BF
:1053E000000000000000003C4278444242FC000003
:1053F000000000030202021A26424242261A00005E
:10540000000000000000003844020202443800009E
:1054100000000060404040784442424264D80000AE
:10542000000000000000003C427E0202423C0000FE
:10543000000000F08808087E08080808083E000000
:10544000000000000000007C22221C023C42423C82
:10545000000000030202023A4642424242E70000D4
:105460000000000C0C00000E08080808083E0000B0
:105470000000003030000038202020202020221E94
:105480000000000302020272120A161222770000C4
:105490000000000E0808080808080808083E000078
:1054A000000000000000007F9292929292B70000EC
:1054B000000000000000003B4642424242E700007C
:1054C000000000000000003C42424242423C00001A
:1054D000000000000000001B26424242221E02077C
:1054E000000000000000007844424242447840E05E
:1054F00000000000000000774C040404041F0000BA
:10550000000000000000007C42023C40423E0000DF
:10551000000000000008083E0808080808300000E5
:1055200000000000000000634242424262DC0000D2
:1055300000000000000000E74224241408080000D6
:1055400000000000000000EB4949555522220000F0
:10555000000000000000007624181818246E0000D7
:1055600000000000000000E7422424141808080787
:10557000000000000000007E22100808447E0000A9
:1055800000C0202020202010202020202020C0002B
:10559000101010101010101010101010101010100B
:1055A0000006080808080810080808080808060087
:1055B0000C32C200000000000000000000000000EB
:1055C00000000000000000000000000000000000DB
:1055D00000000000000000000000000000000000CB
:1055E00000000000000000000000000000000000BB
:1055F000000000000000000060006000600060002B
:1056000060006000600040002000200020000000DA
:10561000000000006000600060000000000000006A
:105620000000000060066006300398018800440016
:10563000000000000000000000000000000000006A
:10564000000000000000000000000000000000005A
:105650000000000000000000100210021002100202
:10566000FE07FE0708020801080108010801FE07FD
:10567000FE07040104010401040100000000000011
:1056800000000000000040004000F00158034C03FF
:10569000CC034C0058007000E000C001C001400382
:1056A0004C035C034C034801F00040004000000044
:1056B00000000000000000000E010A0191009100AE
:1056C0009100510051003A00AE03A0025004500472
:1056D00048044804480484028403000000000000D9
:1056E000000000000000000038006C006C006C003E
:1056F0006C006C002C0098071C011A013301330167
:105700006301E300C308C6093C0700000000000075
:10571000000000000C001C00100010000800040035
:105720000000000000000000000000000000000079
:105730000000000000000000000000000000000069
:105740000000000000040002000180008000400012
:105750004000200020002000200020002000200029
:1057600040004000800080000001000200040000B2
:1057700000000000020004000800100010002000DB
:105780002000400040004000400040004000400039
:10579000200020001000100008000400020000009B
:1057A0000000000000000000000000004000C000F9
:1057B0004000460C4E0FD001F0015E0F460C400039
:1057C0004000400000000000000000000000000059
:1057D0000000000000000000000000000000400089
:1057E0004000400040004000FE0F400040004000EC
:1057F0004000400000000000000000000000000029
:105800000000000000000000000000000000000098
:105810000000000000000000000000000000000088
:10582000000000000C001C00100010000800040024
:105830000000000000000000000000000000000068
:105840000000000000000000FE0700000000000053
:105850000000000000000000000000000000000048
:105860000000000000000000000000000000000038
:105870000000000000000000000000000000000028
:10588000000000001C001C001C00000000000000C4
:1058900000000000000400060002000300010001F7
:1058A00080008000400040006000200020001000C8
:1058B0001000080008000C000400060002000000B0
:1058C00000000000000000000000F00098010C0340
:1058D0000C03060606060606060606060606060665
:1058E00006060C030C039801F00000000000000005
:1058F0000000000000000000000040007C0060008C
:105900006000600060006000600060006000600097
:105910006000600060006000FC0300000000000008
:1059200000000000000000000000F80084010203F5
:1059300006030603000300018001C0006000200090
:105940001000080204020602FE030000000000002E
:10595000000000000000000000007800C600860182
:10596000860180018001C0007000800100010003F9
:105970000003060306038601F80000000000000093
:105980000000000000000000000080018001C00154
:10599000A001A00190018801880184018201FE0F0D
:1059A0008001800180018001E0070000000000000C
:1059B00000000000000000000000FC0304000400E0
:1059C000040004000400F4008C010403000300033D
:1059D0000603060382018401F800000000000000B5
:1059E00000000000000000000000E00118030C03AC
:1059F0000C0004000600E60116030E060606060665
:105A0000060604060C021803F00000000000000067
:105A100000000000000000000000F8070C0604026F
:105A200004010001000180008000400040004000AF
:105A30006000600060006000600000000000000086
:105A400000000000000000000000F8010C03060642
:105A5000060606060C021C03F000C8010C0306062D
:105A60000606060606060C03F00100000000000012
:105A700000000000000000000000F0000C010C031A
:105A8000060206060606060606078C0678060006C7
:105A9000000300030C018C017800000000000000EE
:105AA00000000000000000000000000000000000F6
:105AB00000000000E000E000E00000000000000046
:105AC00000000000E000E000E00000000000000036
:105AD00000000000000000000000000000000000C6
